{
  "contractName": "PharmaDistribution",
  "abi": [
    {
      "anonymous": false,
      "inputs": [
        {
          "indexed": false,
          "internalType": "string",
          "name": "qrCode",
          "type": "string"
        },
        {
          "indexed": false,
          "internalType": "string",
          "name": "message",
          "type": "string"
        },
        {
          "indexed": false,
          "internalType": "uint256",
          "name": "timestamp",
          "type": "uint256"
        }
      ],
      "name": "Alert",
      "type": "event"
    },
    {
      "anonymous": false,
      "inputs": [
        {
          "indexed": false,
          "internalType": "uint256",
          "name": "batchId",
          "type": "uint256"
        },
        {
          "indexed": true,
          "internalType": "address",
          "name": "owner",
          "type": "address"
        }
      ],
      "name": "BatchCreated",
      "type": "event"
    },
    {
      "anonymous": false,
      "inputs": [
        {
          "indexed": false,
          "internalType": "uint256",
          "name": "batchId",
          "type": "uint256"
        },
        {
          "indexed": true,
          "internalType": "address",
          "name": "from",
          "type": "address"
        },
        {
          "indexed": true,
          "internalType": "address",
          "name": "to",
          "type": "address"
        },
        {
          "indexed": false,
          "internalType": "string",
          "name": "status",
          "type": "string"
        }
      ],
      "name": "BatchTransferred",
      "type": "event"
    },
    {
      "anonymous": false,
      "inputs": [
        {
          "indexed": false,
          "internalType": "uint256",
          "name": "requestId",
          "type": "uint256"
        },
        {
          "indexed": false,
          "internalType": "uint256",
          "name": "batchId",
          "type": "uint256"
        },
        {
          "indexed": true,
          "internalType": "address",
          "name": "requester",
          "type": "address"
        },
        {
          "indexed": true,
          "internalType": "address",
          "name": "recipient",
          "type": "address"
        },
        {
          "indexed": false,
          "internalType": "string",
          "name": "status",
          "type": "string"
        }
      ],
      "name": "DeliveryRequestCreated",
      "type": "event"
    },
    {
      "anonymous": false,
      "inputs": [
        {
          "indexed": false,
          "internalType": "string",
          "name": "qrCode",
          "type": "string"
        },
        {
          "indexed": true,
          "internalType": "address",
          "name": "manufacturer",
          "type": "address"
        }
      ],
      "name": "DrugCreated",
      "type": "event"
    },
    {
      "anonymous": false,
      "inputs": [
        {
          "indexed": false,
          "internalType": "string",
          "name": "qrCode",
          "type": "string"
        },
        {
          "indexed": false,
          "internalType": "string",
          "name": "status",
          "type": "string"
        },
        {
          "indexed": true,
          "internalType": "address",
          "name": "newOwner",
          "type": "address"
        }
      ],
      "name": "DrugStatusChanged",
      "type": "event"
    },
    {
      "anonymous": false,
      "inputs": [
        {
          "indexed": false,
          "internalType": "string",
          "name": "qrCode",
          "type": "string"
        },
        {
          "indexed": true,
          "internalType": "address",
          "name": "from",
          "type": "address"
        },
        {
          "indexed": true,
          "internalType": "address",
          "name": "to",
          "type": "address"
        },
        {
          "indexed": false,
          "internalType": "string",
          "name": "status",
          "type": "string"
        }
      ],
      "name": "DrugTransferred",
      "type": "event"
    },
    {
      "anonymous": false,
      "inputs": [
        {
          "indexed": false,
          "internalType": "string",
          "name": "qrCode",
          "type": "string"
        },
        {
          "indexed": false,
          "internalType": "int256",
          "name": "temperature",
          "type": "int256"
        },
        {
          "indexed": false,
          "internalType": "int256",
          "name": "humidity",
          "type": "int256"
        },
        {
          "indexed": false,
          "internalType": "uint256",
          "name": "timestamp",
          "type": "uint256"
        }
      ],
      "name": "IoTDataUpdated",
      "type": "event"
    },
    {
      "anonymous": false,
      "inputs": [
        {
          "indexed": false,
          "internalType": "uint256",
          "name": "requestId",
          "type": "uint256"
        },
        {
          "indexed": true,
          "internalType": "address",
          "name": "requester",
          "type": "address"
        },
        {
          "indexed": false,
          "internalType": "string",
          "name": "drugName",
          "type": "string"
        },
        {
          "indexed": false,
          "internalType": "uint256",
          "name": "quantity",
          "type": "uint256"
        },
        {
          "indexed": false,
          "internalType": "address",
          "name": "manufacturer",
          "type": "address"
        }
      ],
      "name": "RequestCreated",
      "type": "event"
    },
    {
      "anonymous": false,
      "inputs": [
        {
          "indexed": false,
          "internalType": "uint256",
          "name": "requestId",
          "type": "uint256"
        },
        {
          "indexed": false,
          "internalType": "string",
          "name": "status",
          "type": "string"
        }
      ],
      "name": "RequestStatusChanged",
      "type": "event"
    },
    {
      "anonymous": false,
      "inputs": [
        {
          "indexed": false,
          "internalType": "uint256",
          "name": "requestId",
          "type": "uint256"
        },
        {
          "indexed": false,
          "internalType": "uint256",
          "name": "batchId",
          "type": "uint256"
        },
        {
          "indexed": true,
          "internalType": "address",
          "name": "requester",
          "type": "address"
        },
        {
          "indexed": true,
          "internalType": "address",
          "name": "recipient",
          "type": "address"
        },
        {
          "indexed": false,
          "internalType": "string",
          "name": "status",
          "type": "string"
        }
      ],
      "name": "TransferRequestCreated",
      "type": "event"
    },
    {
      "inputs": [],
      "name": "batchCounter",
      "outputs": [
        {
          "internalType": "uint256",
          "name": "",
          "type": "uint256"
        }
      ],
      "stateMutability": "view",
      "type": "function",
      "constant": true
    },
    {
      "inputs": [
        {
          "internalType": "uint256",
          "name": "",
          "type": "uint256"
        }
      ],
      "name": "batches",
      "outputs": [
        {
          "internalType": "uint256",
          "name": "batchId",
          "type": "uint256"
        },
        {
          "internalType": "address",
          "name": "owner",
          "type": "address"
        },
        {
          "internalType": "address",
          "name": "finalRecipient",
          "type": "address"
        },
        {
          "internalType": "uint256",
          "name": "quantity",
          "type": "uint256"
        },
        {
          "internalType": "string",
          "name": "status",
          "type": "string"
        }
      ],
      "stateMutability": "view",
      "type": "function",
      "constant": true
    },
    {
      "inputs": [
        {
          "internalType": "address",
          "name": "",
          "type": "address"
        }
      ],
      "name": "distributorRequestCounters",
      "outputs": [
        {
          "internalType": "uint256",
          "name": "",
          "type": "uint256"
        }
      ],
      "stateMutability": "view",
      "type": "function",
      "constant": true
    },
    {
      "inputs": [
        {
          "internalType": "uint256",
          "name": "",
          "type": "uint256"
        }
      ],
      "name": "distributorRequests",
      "outputs": [
        {
          "internalType": "uint256",
          "name": "requestId",
          "type": "uint256"
        },
        {
          "internalType": "uint256",
          "name": "batchId",
          "type": "uint256"
        },
        {
          "internalType": "address",
          "name": "requester",
          "type": "address"
        },
        {
          "internalType": "address",
          "name": "recipient",
          "type": "address"
        },
        {
          "internalType": "string",
          "name": "status",
          "type": "string"
        }
      ],
      "stateMutability": "view",
      "type": "function",
      "constant": true
    },
    {
      "inputs": [
        {
          "internalType": "string",
          "name": "",
          "type": "string"
        },
        {
          "internalType": "uint256",
          "name": "",
          "type": "uint256"
        }
      ],
      "name": "drugIoTData",
      "outputs": [
        {
          "internalType": "uint256",
          "name": "timestamp",
          "type": "uint256"
        },
        {
          "internalType": "int256",
          "name": "temperature",
          "type": "int256"
        },
        {
          "internalType": "int256",
          "name": "humidity",
          "type": "int256"
        }
      ],
      "stateMutability": "view",
      "type": "function",
      "constant": true
    },
    {
      "inputs": [
        {
          "internalType": "string",
          "name": "",
          "type": "string"
        }
      ],
      "name": "drugs",
      "outputs": [
        {
          "internalType": "string",
          "name": "qrCode",
          "type": "string"
        },
        {
          "internalType": "string",
          "name": "cryptoKey",
          "type": "string"
        },
        {
          "internalType": "uint256",
          "name": "expirationDate",
          "type": "uint256"
        },
        {
          "internalType": "address",
          "name": "currentOwner",
          "type": "address"
        },
        {
          "internalType": "string",
          "name": "status",
          "type": "string"
        }
      ],
      "stateMutability": "view",
      "type": "function",
      "constant": true
    },
    {
      "inputs": [
        {
          "internalType": "address",
          "name": "",
          "type": "address"
        }
      ],
      "name": "hospitalRequestCounters",
      "outputs": [
        {
          "internalType": "uint256",
          "name": "",
          "type": "uint256"
        }
      ],
      "stateMutability": "view",
      "type": "function",
      "constant": true
    },
    {
      "inputs": [
        {
          "internalType": "uint256",
          "name": "",
          "type": "uint256"
        }
      ],
      "name": "hospitalRequests",
      "outputs": [
        {
          "internalType": "uint256",
          "name": "requestId",
          "type": "uint256"
        },
        {
          "internalType": "uint256",
          "name": "batchId",
          "type": "uint256"
        },
        {
          "internalType": "address",
          "name": "requester",
          "type": "address"
        },
        {
          "internalType": "address",
          "name": "recipient",
          "type": "address"
        },
        {
          "internalType": "string",
          "name": "status",
          "type": "string"
        }
      ],
      "stateMutability": "view",
      "type": "function",
      "constant": true
    },
    {
      "inputs": [
        {
          "internalType": "address",
          "name": "",
          "type": "address"
        }
      ],
      "name": "hospitalRequesttoWholesalerCounters",
      "outputs": [
        {
          "internalType": "uint256",
          "name": "",
          "type": "uint256"
        }
      ],
      "stateMutability": "view",
      "type": "function",
      "constant": true
    },
    {
      "inputs": [
        {
          "internalType": "uint256",
          "name": "",
          "type": "uint256"
        }
      ],
      "name": "requests1",
      "outputs": [
        {
          "internalType": "uint256",
          "name": "requestId",
          "type": "uint256"
        },
        {
          "internalType": "string",
          "name": "drugName",
          "type": "string"
        },
        {
          "internalType": "uint256",
          "name": "quantity",
          "type": "uint256"
        },
        {
          "internalType": "address",
          "name": "requester",
          "type": "address"
        },
        {
          "internalType": "address",
          "name": "manufacturer",
          "type": "address"
        },
        {
          "internalType": "string",
          "name": "status",
          "type": "string"
        }
      ],
      "stateMutability": "view",
      "type": "function",
      "constant": true
    },
    {
      "inputs": [
        {
          "internalType": "uint256",
          "name": "",
          "type": "uint256"
        }
      ],
      "name": "requests2",
      "outputs": [
        {
          "internalType": "uint256",
          "name": "requestId",
          "type": "uint256"
        },
        {
          "internalType": "string",
          "name": "drugName",
          "type": "string"
        },
        {
          "internalType": "uint256",
          "name": "quantity",
          "type": "uint256"
        },
        {
          "internalType": "address",
          "name": "requester",
          "type": "address"
        },
        {
          "internalType": "address",
          "name": "wholesaler",
          "type": "address"
        },
        {
          "internalType": "string",
          "name": "status",
          "type": "string"
        }
      ],
      "stateMutability": "view",
      "type": "function",
      "constant": true
    },
    {
      "inputs": [
        {
          "internalType": "string",
          "name": "",
          "type": "string"
        },
        {
          "internalType": "uint256",
          "name": "",
          "type": "uint256"
        }
      ],
      "name": "transactionHistory",
      "outputs": [
        {
          "internalType": "string",
          "name": "qrCode",
          "type": "string"
        },
        {
          "internalType": "address",
          "name": "from",
          "type": "address"
        },
        {
          "internalType": "address",
          "name": "to",
          "type": "address"
        },
        {
          "internalType": "string",
          "name": "status",
          "type": "string"
        },
        {
          "internalType": "uint256",
          "name": "timestamp",
          "type": "uint256"
        }
      ],
      "stateMutability": "view",
      "type": "function",
      "constant": true
    },
    {
      "inputs": [
        {
          "internalType": "address",
          "name": "",
          "type": "address"
        }
      ],
      "name": "wholesalerRequestCounters",
      "outputs": [
        {
          "internalType": "uint256",
          "name": "",
          "type": "uint256"
        }
      ],
      "stateMutability": "view",
      "type": "function",
      "constant": true
    },
    {
      "inputs": [
        {
          "internalType": "uint256",
          "name": "",
          "type": "uint256"
        }
      ],
      "name": "wholesalerRequests",
      "outputs": [
        {
          "internalType": "uint256",
          "name": "requestId",
          "type": "uint256"
        },
        {
          "internalType": "uint256",
          "name": "batchId",
          "type": "uint256"
        },
        {
          "internalType": "address",
          "name": "requester",
          "type": "address"
        },
        {
          "internalType": "address",
          "name": "recipient",
          "type": "address"
        },
        {
          "internalType": "string",
          "name": "status",
          "type": "string"
        }
      ],
      "stateMutability": "view",
      "type": "function",
      "constant": true
    },
    {
      "inputs": [
        {
          "internalType": "address",
          "name": "",
          "type": "address"
        }
      ],
      "name": "wholesalerRequesttoManufacturerCounters",
      "outputs": [
        {
          "internalType": "uint256",
          "name": "",
          "type": "uint256"
        }
      ],
      "stateMutability": "view",
      "type": "function",
      "constant": true
    },
    {
      "inputs": [
        {
          "internalType": "string",
          "name": "drugName",
          "type": "string"
        },
        {
          "internalType": "uint256",
          "name": "quantity",
          "type": "uint256"
        },
        {
          "internalType": "address",
          "name": "manufacturer",
          "type": "address"
        }
      ],
      "name": "requestDrugs",
      "outputs": [],
      "stateMutability": "nonpayable",
      "type": "function"
    },
    {
      "inputs": [
        {
          "internalType": "uint256",
          "name": "requestId",
          "type": "uint256"
        },
        {
          "internalType": "string[]",
          "name": "qrCodes",
          "type": "string[]"
        },
        {
          "internalType": "string[]",
          "name": "cryptoKeys",
          "type": "string[]"
        },
        {
          "internalType": "uint256[]",
          "name": "expirationDates",
          "type": "uint256[]"
        }
      ],
      "name": "approveRequest",
      "outputs": [],
      "stateMutability": "nonpayable",
      "type": "function"
    },
    {
      "inputs": [
        {
          "internalType": "uint256",
          "name": "batchId",
          "type": "uint256"
        },
        {
          "internalType": "address",
          "name": "distributor",
          "type": "address"
        }
      ],
      "name": "createTransferRequestToDistributor",
      "outputs": [],
      "stateMutability": "nonpayable",
      "type": "function"
    },
    {
      "inputs": [
        {
          "internalType": "uint256",
          "name": "requestId",
          "type": "uint256"
        }
      ],
      "name": "acceptTransferRequestFromManufacturer",
      "outputs": [],
      "stateMutability": "nonpayable",
      "type": "function"
    },
    {
      "inputs": [
        {
          "internalType": "uint256",
          "name": "batchId",
          "type": "uint256"
        },
        {
          "internalType": "address",
          "name": "wholesaler",
          "type": "address"
        }
      ],
      "name": "createDeliveryRequestToWholesaler",
      "outputs": [],
      "stateMutability": "nonpayable",
      "type": "function"
    },
    {
      "inputs": [
        {
          "internalType": "uint256",
          "name": "requestId",
          "type": "uint256"
        }
      ],
      "name": "acceptDeliveryRequestFromDistributor1",
      "outputs": [],
      "stateMutability": "nonpayable",
      "type": "function"
    },
    {
      "inputs": [
        {
          "internalType": "string",
          "name": "drugName",
          "type": "string"
        },
        {
          "internalType": "uint256",
          "name": "quantity",
          "type": "uint256"
        },
        {
          "internalType": "address",
          "name": "wholesaler",
          "type": "address"
        }
      ],
      "name": "requestDrugsFromWholesaler",
      "outputs": [],
      "stateMutability": "nonpayable",
      "type": "function"
    },
    {
      "inputs": [
        {
          "internalType": "uint256",
          "name": "batchId",
          "type": "uint256"
        },
        {
          "internalType": "address",
          "name": "requesterr",
          "type": "address"
        }
      ],
      "name": "changeFinalStat",
      "outputs": [],
      "stateMutability": "nonpayable",
      "type": "function"
    },
    {
      "inputs": [
        {
          "internalType": "uint256",
          "name": "requestId",
          "type": "uint256"
        },
        {
          "internalType": "uint256",
          "name": "batchId",
          "type": "uint256"
        }
      ],
      "name": "approveRequestFromHospital",
      "outputs": [],
      "stateMutability": "nonpayable",
      "type": "function"
    },
    {
      "inputs": [
        {
          "internalType": "uint256",
          "name": "batchId",
          "type": "uint256"
        },
        {
          "internalType": "address",
          "name": "distributor",
          "type": "address"
        }
      ],
      "name": "createDeliveryRequestToDistributor",
      "outputs": [],
      "stateMutability": "nonpayable",
      "type": "function"
    },
    {
      "inputs": [
        {
          "internalType": "uint256",
          "name": "requestId",
          "type": "uint256"
        }
      ],
      "name": "acceptDeliveryRequestFromWholesaler",
      "outputs": [],
      "stateMutability": "nonpayable",
      "type": "function"
    },
    {
      "inputs": [
        {
          "internalType": "uint256",
          "name": "batchId",
          "type": "uint256"
        },
        {
          "internalType": "address",
          "name": "hospital",
          "type": "address"
        }
      ],
      "name": "createDeliveryRequestToHospital",
      "outputs": [],
      "stateMutability": "nonpayable",
      "type": "function"
    },
    {
      "inputs": [
        {
          "internalType": "uint256",
          "name": "requestId",
          "type": "uint256"
        }
      ],
      "name": "acceptDeliveryRequestFromDistributor2",
      "outputs": [],
      "stateMutability": "nonpayable",
      "type": "function"
    },
    {
      "inputs": [
        {
          "internalType": "string",
          "name": "qrCode",
          "type": "string"
        },
        {
          "internalType": "int256",
          "name": "temperature",
          "type": "int256"
        },
        {
          "internalType": "int256",
          "name": "humidity",
          "type": "int256"
        }
      ],
      "name": "updateIoTData",
      "outputs": [],
      "stateMutability": "nonpayable",
      "type": "function"
    },
    {
      "inputs": [
        {
          "internalType": "string",
          "name": "qrCode",
          "type": "string"
        }
      ],
      "name": "getLatestIoTData",
      "outputs": [
        {
          "components": [
            {
              "internalType": "uint256",
              "name": "timestamp",
              "type": "uint256"
            },
            {
              "internalType": "int256",
              "name": "temperature",
              "type": "int256"
            },
            {
              "internalType": "int256",
              "name": "humidity",
              "type": "int256"
            }
          ],
          "internalType": "struct PharmaDistribution.IoTData",
          "name": "",
          "type": "tuple"
        }
      ],
      "stateMutability": "view",
      "type": "function",
      "constant": true
    },
    {
      "inputs": [
        {
          "internalType": "string",
          "name": "qrCode",
          "type": "string"
        }
      ],
      "name": "getTransactionHistory",
      "outputs": [
        {
          "components": [
            {
              "internalType": "string",
              "name": "qrCode",
              "type": "string"
            },
            {
              "internalType": "address",
              "name": "from",
              "type": "address"
            },
            {
              "internalType": "address",
              "name": "to",
              "type": "address"
            },
            {
              "internalType": "string",
              "name": "status",
              "type": "string"
            },
            {
              "internalType": "uint256",
              "name": "timestamp",
              "type": "uint256"
            }
          ],
          "internalType": "struct PharmaDistribution.Transaction[]",
          "name": "",
          "type": "tuple[]"
        }
      ],
      "stateMutability": "view",
      "type": "function",
      "constant": true
    },
    {
      "inputs": [],
      "name": "getAllBatches",
      "outputs": [
        {
          "components": [
            {
              "internalType": "uint256",
              "name": "batchId",
              "type": "uint256"
            },
            {
              "internalType": "string[]",
              "name": "qrCodes",
              "type": "string[]"
            },
            {
              "internalType": "address",
              "name": "owner",
              "type": "address"
            },
            {
              "internalType": "address",
              "name": "finalRecipient",
              "type": "address"
            },
            {
              "internalType": "uint256",
              "name": "quantity",
              "type": "uint256"
            },
            {
              "internalType": "string",
              "name": "status",
              "type": "string"
            }
          ],
          "internalType": "struct PharmaDistribution.Batch[]",
          "name": "",
          "type": "tuple[]"
        }
      ],
      "stateMutability": "view",
      "type": "function",
      "constant": true
    },
    {
      "inputs": [],
      "name": "getAllRequests1",
      "outputs": [
        {
          "components": [
            {
              "internalType": "uint256",
              "name": "requestId",
              "type": "uint256"
            },
            {
              "internalType": "string",
              "name": "drugName",
              "type": "string"
            },
            {
              "internalType": "uint256",
              "name": "quantity",
              "type": "uint256"
            },
            {
              "internalType": "address",
              "name": "requester",
              "type": "address"
            },
            {
              "internalType": "address",
              "name": "manufacturer",
              "type": "address"
            },
            {
              "internalType": "string",
              "name": "status",
              "type": "string"
            }
          ],
          "internalType": "struct PharmaDistribution.Request1[]",
          "name": "",
          "type": "tuple[]"
        }
      ],
      "stateMutability": "view",
      "type": "function",
      "constant": true
    },
    {
      "inputs": [],
      "name": "getAllRequests2",
      "outputs": [
        {
          "components": [
            {
              "internalType": "uint256",
              "name": "requestId",
              "type": "uint256"
            },
            {
              "internalType": "string",
              "name": "drugName",
              "type": "string"
            },
            {
              "internalType": "uint256",
              "name": "quantity",
              "type": "uint256"
            },
            {
              "internalType": "address",
              "name": "requester",
              "type": "address"
            },
            {
              "internalType": "address",
              "name": "wholesaler",
              "type": "address"
            },
            {
              "internalType": "string",
              "name": "status",
              "type": "string"
            }
          ],
          "internalType": "struct PharmaDistribution.Request2[]",
          "name": "",
          "type": "tuple[]"
        }
      ],
      "stateMutability": "view",
      "type": "function",
      "constant": true
    },
    {
      "inputs": [],
      "name": "getAllDistributorRequests",
      "outputs": [
        {
          "components": [
            {
              "internalType": "uint256",
              "name": "requestId",
              "type": "uint256"
            },
            {
              "internalType": "uint256",
              "name": "batchId",
              "type": "uint256"
            },
            {
              "internalType": "address",
              "name": "requester",
              "type": "address"
            },
            {
              "internalType": "address",
              "name": "recipient",
              "type": "address"
            },
            {
              "internalType": "string",
              "name": "status",
              "type": "string"
            }
          ],
          "internalType": "struct PharmaDistribution.TransferRequest[]",
          "name": "",
          "type": "tuple[]"
        }
      ],
      "stateMutability": "view",
      "type": "function",
      "constant": true
    },
    {
      "inputs": [],
      "name": "getAllWholesalerRequests",
      "outputs": [
        {
          "components": [
            {
              "internalType": "uint256",
              "name": "requestId",
              "type": "uint256"
            },
            {
              "internalType": "uint256",
              "name": "batchId",
              "type": "uint256"
            },
            {
              "internalType": "address",
              "name": "requester",
              "type": "address"
            },
            {
              "internalType": "address",
              "name": "recipient",
              "type": "address"
            },
            {
              "internalType": "string",
              "name": "status",
              "type": "string"
            }
          ],
          "internalType": "struct PharmaDistribution.TransferRequest[]",
          "name": "",
          "type": "tuple[]"
        }
      ],
      "stateMutability": "view",
      "type": "function",
      "constant": true
    },
    {
      "inputs": [],
      "name": "getAllHospitalRequests",
      "outputs": [
        {
          "components": [
            {
              "internalType": "uint256",
              "name": "requestId",
              "type": "uint256"
            },
            {
              "internalType": "uint256",
              "name": "batchId",
              "type": "uint256"
            },
            {
              "internalType": "address",
              "name": "requester",
              "type": "address"
            },
            {
              "internalType": "address",
              "name": "recipient",
              "type": "address"
            },
            {
              "internalType": "string",
              "name": "status",
              "type": "string"
            }
          ],
          "internalType": "struct PharmaDistribution.TransferRequest[]",
          "name": "",
          "type": "tuple[]"
        }
      ],
      "stateMutability": "view",
      "type": "function",
      "constant": true
    }
  ],
  "bytecode": "0x608060405234801561001057600080fd5b50614ed1806100206000396000f3fe608060405234801561001057600080fd5b50600436106102275760003560e01c80638c33697211610130578063b7cdba86116100b8578063dfd1a3961161007c578063dfd1a39614610506578063e6ee8c1b14610519578063e80e076b14610521578063eae4ce1414610536578063ede5d9011461055657610227565b8063b7cdba86146104a1578063bb28073a146104b4578063bd60a014146104d8578063c7f7a0db146104eb578063d0708084146104f357610227565b8063aa25a116116100ff578063aa25a11614610420578063ac48014e14610433578063af6cf4cc14610446578063b009493d14610459578063b32c4d8d1461047d57610227565b80638c336972146103c35780638ef6558c146103d65780639826805d146103f8578063a84f971f1461040d57610227565b8063571cfeb9116101b3578063679b31ea11610182578063679b31ea1461036f57806368233eef14610382578063697e74f81461038a57806374b3703f1461039d5780637913f633146103b057610227565b8063571cfeb91461031f5780635a1820a5146103325780635c3549291461034757806367894fec1461035a57610227565b806321bd23b1116101fa57806321bd23b1146102955780632207d17a146102b5578063296a54f5146102c8578063397d79ed146102e857806356fd7235146102fb57610227565b8063019ee37e1461022c578063063753ab14610241578063091b1f17146102545780630b0c5fbc14610282575b600080fd5b61023f61023a366004614087565b610569565b005b61023f61024f366004614087565b61059a565b61026761026236600461406f565b61070a565b60405161027996959493929190614bc5565b60405180910390f35b61023f61029036600461406f565b610860565b6102a86102a3366004613f54565b610c96565b604051610279919061459c565b61023f6102c336600461406f565b610e66565b6102db6102d6366004613f33565b61128f565b6040516102799190614b28565b6102db6102f6366004613f33565b6112a1565b61030e61030936600461406f565b6112b3565b604051610279959493929190614ca4565b61023f61032d366004614087565b611379565b61033a611489565b6040516102799190614640565b61030e61035536600461406f565b61167f565b6103626116c2565b6040516102799190614549565b61023f61037d3660046140b2565b611944565b6102db611a78565b61023f610398366004613f8e565b611a7e565b61023f6103ab366004614194565b611bc6565b6102db6103be366004613f33565b611ce9565b61023f6103d136600461406f565b611cfb565b6103e96103e4366004613fd9565b612121565b60405161027993929190614b75565b610400612172565b60405161027991906144e9565b61026761041b36600461406f565b6123f3565b6102db61042e366004613f33565b612415565b61023f61044136600461401b565b612427565b61023f610454366004614087565b612572565b61046c610467366004613f54565b6126cb565b604051610279959493929190614763565b61049061048b36600461406f565b612827565b604051610279959493929190614b31565b61023f6104af36600461406f565b61286a565b6104c76104c2366004613fd9565b612ca5565b6040516102799594939291906146e5565b6102db6104e6366004613f33565b612e29565b61033a612e3b565b61023f610501366004614087565b61302a565b61023f61051436600461401b565b61313a565b61033a6131dc565b6105296133cb565b60405161027991906143e6565b610549610544366004613f54565b613686565b6040516102799190614b07565b61030e61056436600461406f565b613773565b60009182526001602052604090912060030180546001600160a01b0319166001600160a01b03909216919091179055565b600082815260016020526040902060028101546001600160a01b031633146105dd5760405162461bcd60e51b81526004016105d4906149ef565b60405180910390fd5b6001600160a01b0382166000908152600a602052604081208054908261060283614dd4565b909155506040805160a0810182528281526020808201888152338385019081526001600160a01b03898116606086019081528651808801885260078082526650656e64696e6760c81b828801526080880191825260008a815290875297909720865181559351600185015591516002840180546001600160a01b0319908116928416929092179055915160038401805490931691161790559251805194955091936106b39260048501920190613c0b565b50905050826001600160a01b0316336001600160a01b03167fd11788a1cfc60a9a3061653db1e174ae7b20a6d90cb6960a4171ee43f295935083876040516106fc929190614cdd565b60405180910390a350505050565b6002602052600090815260409020805460018201805491929161072c90614d99565b80601f016020809104026020016040519081016040528092919081815260200182805461075890614d99565b80156107a55780601f1061077a576101008083540402835291602001916107a5565b820191906000526020600020905b81548152906001019060200180831161078857829003601f168201915b505050600284015460038501546004860154600587018054969793966001600160a01b0393841696509190921693506107dd90614d99565b80601f016020809104026020016040519081016040528092919081815260200182805461080990614d99565b80156108565780601f1061082b57610100808354040283529160200191610856565b820191906000526020600020905b81548152906001019060200180831161083957829003601f168201915b5050505050905086565b600081815260066020526040902060038101546001600160a01b0316331461089a5760405162461bcd60e51b81526004016105d490614abe565b604080518082018252600781526650656e64696e6760c81b60209091015251600080516020614e5c833981519152906108d79060048401906143be565b6040518091039020146108fc5760405162461bcd60e51b81526004016105d490614974565b604080518082019091526008808252671058d8d95c1d195960c21b602090920191825261092d916004840191613c0b565b50600181810154600090815260209182526040908190206002810180546001600160a01b031916331790558151808301909252600b8083526a24b7102a3930b739b4ba1960a91b929093019182529161098a916005840191613c0b565b5060005b6001820154811015610c55573360008360010183815481106109c057634e487b7160e01b600052603260045260246000fd5b906000526020600020016040516109d791906143be565b908152602001604051809103902060030160006101000a8154816001600160a01b0302191690836001600160a01b031602179055506040518060400160405280600b81526020016a24b7102a3930b739b4ba1960a91b8152506000836001018381548110610a5557634e487b7160e01b600052603260045260246000fd5b90600052602060002001604051610a6c91906143be565b90815260200160405180910390206004019080519060200190610a90929190613c0b565b50600283015460018301805433926001600160a01b031691600080516020614e7c8339815191529185908110610ad657634e487b7160e01b600052603260045260246000fd5b90600052602060002001604051610aed9190614869565b60405180910390a3336001600160a01b0316600080516020614e3c833981519152836001018381548110610b3157634e487b7160e01b600052603260045260246000fd5b90600052602060002001604051610b489190614869565b60405180910390a2610c43826001018281548110610b7657634e487b7160e01b600052603260045260246000fd5b906000526020600020018054610b8b90614d99565b80601f0160208091040260200160405190810160405280929190818152602001828054610bb790614d99565b8015610c045780601f10610bd957610100808354040283529160200191610c04565b820191906000526020600020905b815481529060010190602001808311610be757829003601f168201915b505050600287015460408051808201909152600b81526a24b7102a3930b739b4ba1960a91b60208201526001600160a01b0390911692503391506137b6565b80610c4d81614dd4565b91505061098e565b506002820154600183015460405133926001600160a01b031691600080516020614e1c83398151915291610c899190614c1b565b60405180910390a3505050565b6060600482604051610ca891906143ca565b9081526020016040518091039020805480602002602001604051908101604052809291908181526020016000905b82821015610e5a57838290600052602060002090600502016040518060a0016040529081600082018054610d0990614d99565b80601f0160208091040260200160405190810160405280929190818152602001828054610d3590614d99565b8015610d825780601f10610d5757610100808354040283529160200191610d82565b820191906000526020600020905b815481529060010190602001808311610d6557829003601f168201915b505050918352505060018201546001600160a01b0390811660208301526002830154166040820152600382018054606090920191610dbf90614d99565b80601f0160208091040260200160405190810160405280929190818152602001828054610deb90614d99565b8015610e385780601f10610e0d57610100808354040283529160200191610e38565b820191906000526020600020905b815481529060010190602001808311610e1b57829003601f168201915b5050505050815260200160048201548152505081526020019060010190610cd6565b5050505090505b919050565b600081815260066020526040902060038101546001600160a01b03163314610ea05760405162461bcd60e51b81526004016105d490614abe565b604080518082018252600781526650656e64696e6760c81b60209091015251600080516020614e5c83398151915290610edd9060048401906143be565b604051809103902014610f025760405162461bcd60e51b81526004016105d490614974565b604080518082019091526008808252671058d8d95c1d195960c21b6020909201918252610f33916004840191613c0b565b50600181810154600090815260209182526040908190206002810180546001600160a01b031916331790558151808301909252600b8083526a496e205472616e7369743160a81b9290930191825291610f90916005840191613c0b565b5060005b600182015481101561125b57336000836001018381548110610fc657634e487b7160e01b600052603260045260246000fd5b90600052602060002001604051610fdd91906143be565b908152602001604051809103902060030160006101000a8154816001600160a01b0302191690836001600160a01b031602179055506040518060400160405280600b81526020016a496e205472616e7369743160a81b815250600083600101838154811061105b57634e487b7160e01b600052603260045260246000fd5b9060005260206000200160405161107291906143be565b90815260200160405180910390206004019080519060200190611096929190613c0b565b50600283015460018301805433926001600160a01b031691600080516020614e7c83398151915291859081106110dc57634e487b7160e01b600052603260045260246000fd5b906000526020600020016040516110f391906148b1565b60405180910390a3336001600160a01b0316600080516020614e3c83398151915283600101838154811061113757634e487b7160e01b600052603260045260246000fd5b9060005260206000200160405161114e91906148b1565b60405180910390a261124982600101828154811061117c57634e487b7160e01b600052603260045260246000fd5b90600052602060002001805461119190614d99565b80601f01602080910402602001604051908101604052809291908181526020018280546111bd90614d99565b801561120a5780601f106111df5761010080835404028352916020019161120a565b820191906000526020600020905b8154815290600101906020018083116111ed57829003601f168201915b505050600287015460408051808201909152600b81526a496e205472616e7369743160a81b60208201526001600160a01b0390911692503391506137b6565b8061125381614dd4565b915050610f94565b506002820154600183015460405133926001600160a01b031691600080516020614e1c83398151915291610c899190614c74565b600a6020526000908152604090205481565b600c6020526000908152604090205481565b60066020526000908152604090208054600182015460028301546003840154600485018054949593946001600160a01b039384169492909316926112f690614d99565b80601f016020809104026020016040519081016040528092919081815260200182805461132290614d99565b801561136f5780601f106113445761010080835404028352916020019161136f565b820191906000526020600020905b81548152906001019060200180831161135257829003601f168201915b5050505050905085565b600082815260016020526040902060028101546001600160a01b031633146113b35760405162461bcd60e51b81526004016105d4906149ef565b6001600160a01b0382166000908152600b60205260408120805490826113d883614dd4565b909155506040805160a0810182528281526020808201888152338385019081526001600160a01b038981166060860190815286518088018852600781526650656e64696e6760c81b818701526080870190815260008981526008875297909720865181559351600185015591516002840180546001600160a01b0319908116928416929092179055915160038401805490931691161790559251805194955091936106b39260048501920190613c0b565b60606000805b6000198110156114e2576000818152600760205260409020600201546001600160a01b0316156114cb57816114c381614dd4565b9250506114d0565b6114e2565b806114da81614dd4565b91505061148f565b506000816001600160401b0381111561150b57634e487b7160e01b600052604160045260246000fd5b60405190808252806020026020018201604052801561154457816020015b611531613c8f565b8152602001906001900390816115295790505b50905060005b8281101561167857600081815260076020908152604091829020825160a0810184528154815260018201549281019290925260028101546001600160a01b0390811693830193909352600381015490921660608201526004820180549192916080840191906115b890614d99565b80601f01602080910402602001604051908101604052809291908181526020018280546115e490614d99565b80156116315780601f1061160657610100808354040283529160200191611631565b820191906000526020600020905b81548152906001019060200180831161161457829003601f168201915b50505050508152505082828151811061165a57634e487b7160e01b600052603260045260246000fd5b6020026020010181905250808061167090614dd4565b91505061154a565b5091505090565b60086020526000908152604090208054600182015460028301546003840154600485018054949593946001600160a01b039384169492909316926112f690614d99565b60606000805b60001981101561171c57600081815260036020819052604090912001546001600160a01b03161561170557816116fd81614dd4565b92505061170a565b61171c565b8061171481614dd4565b9150506116c8565b506000816001600160401b0381111561174557634e487b7160e01b600052604160045260246000fd5b60405190808252806020026020018201604052801561177e57816020015b61176b613cd0565b8152602001906001900390816117635790505b50905060005b8281101561167857600360008281526020019081526020016000206040518060c0016040529081600082015481526020016001820180546117c490614d99565b80601f01602080910402602001604051908101604052809291908181526020018280546117f090614d99565b801561183d5780601f106118125761010080835404028352916020019161183d565b820191906000526020600020905b81548152906001019060200180831161182057829003601f168201915b50505091835250506002820154602082015260038201546001600160a01b039081166040830152600483015416606082015260058201805460809092019161188490614d99565b80601f01602080910402602001604051908101604052809291908181526020018280546118b090614d99565b80156118fd5780601f106118d2576101008083540402835291602001916118fd565b820191906000526020600020905b8154815290600101906020018083116118e057829003601f168201915b50505050508152505082828151811061192657634e487b7160e01b600052603260045260246000fd5b6020026020010181905250808061193c90614dd4565b915050611784565b600084815260026020526040902060048101546001600160a01b0316331461197e5760405162461bcd60e51b81526004016105d4906149a1565b604080518082018252600781526650656e64696e6760c81b60209091015251600080516020614e5c833981519152906119bb9060058401906143be565b6040518091039020146119e05760405162461bcd60e51b81526004016105d490614974565b60408051808201909152600880825267105c1c1c9bdd995960c21b6020909201918252611a11916005840191613c0b565b50611a3a8484848460030160009054906101000a90046001600160a01b03168560020154613897565b7f2336f038b657097266f05c3a1c51f511c6feffe94dbda5e8965f9127e4eb072285604051611a699190614c33565b60405180910390a15050505050565b60055481565b60408051606081018252428152602081018490528082018390529051600e90611aa89086906143ca565b90815260408051918290036020908101832080546001818101835560009283529183902086516003909202019081559185015190820155908301516002909101557f21cb398bde559779b65ceb66e19055fc90640dc3e3dccc28993198f323b0d2fa90611b1c908690869086904290614734565b60405180910390a16002831280611b335750600883135b15611b72577f760dd4d906d45b1e90856d44cda30cdeb877e836a4467ec21467001babb235968442604051611b69929190614810565b60405180910390a15b601e821280611b815750603282135b15611bc0577f760dd4d906d45b1e90856d44cda30cdeb877e836a4467ec21467001babb235968442604051611bb79291906147be565b60405180910390a15b50505050565b600082815260036020526040902060048101546001600160a01b03163314611c005760405162461bcd60e51b81526004016105d4906148f9565b604080518082018252600781526650656e64696e6760c81b60209091015251600080516020614e5c83398151915290611c3d9060058401906143be565b604051809103902014611c625760405162461bcd60e51b81526004016105d490614974565b60408051808201909152600880825267105c1c1c9bdd995960c21b6020909201918252611c93916005840191613c0b565b506003810154611cad9083906001600160a01b0316610569565b7f2336f038b657097266f05c3a1c51f511c6feffe94dbda5e8965f9127e4eb072283604051611cdc9190614c33565b60405180910390a1505050565b600b6020526000908152604090205481565b600081815260076020526040902060038101546001600160a01b03163314611d355760405162461bcd60e51b81526004016105d490614abe565b604080518082018252600781526650656e64696e6760c81b60209091015251600080516020614e5c83398151915290611d729060048401906143be565b604051809103902014611d975760405162461bcd60e51b81526004016105d490614974565b604080518082019091526008808252671058d8d95c1d195960c21b6020909201918252611dc8916004840191613c0b565b50600181810154600090815260209182526040908190206002810180546001600160a01b031916331790558151808301909252600a808352692bb437b632b9b0b632b960b11b9290930191825291611e24916005840191613c0b565b5060005b60018201548110156120ed57336000836001018381548110611e5a57634e487b7160e01b600052603260045260246000fd5b90600052602060002001604051611e7191906143be565b908152602001604051809103902060030160006101000a8154816001600160a01b0302191690836001600160a01b031602179055506040518060400160405280600a8152602001692bb437b632b9b0b632b960b11b8152506000836001018381548110611eee57634e487b7160e01b600052603260045260246000fd5b90600052602060002001604051611f0591906143be565b90815260200160405180910390206004019080519060200190611f29929190613c0b565b50600283015460018301805433926001600160a01b031691600080516020614e7c8339815191529185908110611f6f57634e487b7160e01b600052603260045260246000fd5b90600052602060002001604051611f8691906148d5565b60405180910390a3336001600160a01b0316600080516020614e3c833981519152836001018381548110611fca57634e487b7160e01b600052603260045260246000fd5b90600052602060002001604051611fe191906148d5565b60405180910390a26120db82600101828154811061200f57634e487b7160e01b600052603260045260246000fd5b90600052602060002001805461202490614d99565b80601f016020809104026020016040519081016040528092919081815260200182805461205090614d99565b801561209d5780601f106120725761010080835404028352916020019161209d565b820191906000526020600020905b81548152906001019060200180831161208057829003601f168201915b505050600287015460408051808201909152600a8152692bb437b632b9b0b632b960b11b60208201526001600160a01b0390911692503391506137b6565b806120e581614dd4565b915050611e28565b506002820154600183015460405133926001600160a01b031691600080516020614e1c83398151915291610c899190614c8c565b8151602081840181018051600e82529282019185019190912091905280548290811061214c57600080fd5b600091825260209091206003909102018054600182015460029092015490935090915083565b60606000805b6000198110156121cb576000818152600260205260409020600301546001600160a01b0316156121b457816121ac81614dd4565b9250506121b9565b6121cb565b806121c381614dd4565b915050612178565b506000816001600160401b038111156121f457634e487b7160e01b600052604160045260246000fd5b60405190808252806020026020018201604052801561222d57816020015b61221a613cd0565b8152602001906001900390816122125790505b50905060005b8281101561167857600260008281526020019081526020016000206040518060c00160405290816000820154815260200160018201805461227390614d99565b80601f016020809104026020016040519081016040528092919081815260200182805461229f90614d99565b80156122ec5780601f106122c1576101008083540402835291602001916122ec565b820191906000526020600020905b8154815290600101906020018083116122cf57829003601f168201915b50505091835250506002820154602082015260038201546001600160a01b039081166040830152600483015416606082015260058201805460809092019161233390614d99565b80601f016020809104026020016040519081016040528092919081815260200182805461235f90614d99565b80156123ac5780601f10612381576101008083540402835291602001916123ac565b820191906000526020600020905b81548152906001019060200180831161238f57829003601f168201915b5050505050815250508282815181106123d557634e487b7160e01b600052603260045260246000fd5b602002602001018190525080806123eb90614dd4565b915050612233565b6003602052600090815260409020805460018201805491929161072c90614d99565b600d6020526000908152604090205481565b6001600160a01b0381166000908152600d602052604081208054908261244c83614dd4565b909155506040805160c08101825282815260208082018881528284018890523360608401526001600160a01b038716608084015283518085018552600781526650656e64696e6760c81b8184015260a084015260008581526003835293909320825181559251805194955091936124c99260018501920190613c0b565b506040820151600282015560608201516003820180546001600160a01b039283166001600160a01b031991821617909155608084015160048401805491909316911617905560a08201518051612529916005840191602090910190613c0b565b50506040513391507f7d8fe2dc2d99ebd2aa1422ee9d7907db4042617c8a1a23bf4fb602668910fb5990612564908490889088908890614b8b565b60405180910390a250505050565b600082815260016020526040902060028101546001600160a01b031633146125ac5760405162461bcd60e51b81526004016105d490614a72565b6001600160a01b0382166000908152600960205260408120805490826125d183614dd4565b909155506040805160a0810182528281526020808201888152338385019081526001600160a01b038981166060860190815286518088018852600781526650656e64696e6760c81b818701526080870190815260008981526006875297909720865181559351600185015591516002840180546001600160a01b0319908116928416929092179055915160038401805490931691161790559251805194955091936126829260048501920190613c0b565b50905050826001600160a01b0316336001600160a01b03167f6dd65e02cce93508b7385adf9f1eb41dc50f71d39102d1cd425b07e030e5b48683876040516106fc929190614cdd565b80516020818301810180516000825292820191909301209152805481906126f190614d99565b80601f016020809104026020016040519081016040528092919081815260200182805461271d90614d99565b801561276a5780601f1061273f5761010080835404028352916020019161276a565b820191906000526020600020905b81548152906001019060200180831161274d57829003601f168201915b50505050509080600101805461277f90614d99565b80601f01602080910402602001604051908101604052809291908181526020018280546127ab90614d99565b80156127f85780601f106127cd576101008083540402835291602001916127f8565b820191906000526020600020905b8154815290600101906020018083116127db57829003601f168201915b5050505060028301546003840154600485018054949592946001600160a01b039092169350906112f690614d99565b6001602052600090815260409020805460028201546003830154600484015460058501805494956001600160a01b0394851695939094169391926112f690614d99565b600081815260086020526040902060038101546001600160a01b031633146128a45760405162461bcd60e51b81526004016105d490614abe565b604080518082018252600781526650656e64696e6760c81b60209091015251600080516020614e5c833981519152906128e19060048401906143be565b6040518091039020146129065760405162461bcd60e51b81526004016105d490614974565b604080518082019091526008808252671058d8d95c1d195960c21b6020909201918252612937916004840191613c0b565b50600181810154600090815260209182526040908190206002810180546001600160a01b031916331790558151808301909252601180835270486f73706974616c2f506861726d61637960781b929093019182529161299a916005840191613c0b565b5060005b6001820154811015612c71573360008360010183815481106129d057634e487b7160e01b600052603260045260246000fd5b906000526020600020016040516129e791906143be565b908152602001604051809103902060030160006101000a8154816001600160a01b0302191690836001600160a01b0316021790555060405180604001604052806011815260200170486f73706974616c2f506861726d61637960781b8152506000836001018381548110612a6b57634e487b7160e01b600052603260045260246000fd5b90600052602060002001604051612a8291906143be565b90815260200160405180910390206004019080519060200190612aa6929190613c0b565b50600283015460018301805433926001600160a01b031691600080516020614e7c8339815191529185908110612aec57634e487b7160e01b600052603260045260246000fd5b90600052602060002001604051612b03919061488d565b60405180910390a3336001600160a01b0316600080516020614e3c833981519152836001018381548110612b4757634e487b7160e01b600052603260045260246000fd5b90600052602060002001604051612b5e919061488d565b60405180910390a2612c5f826001018281548110612b8c57634e487b7160e01b600052603260045260246000fd5b906000526020600020018054612ba190614d99565b80601f0160208091040260200160405190810160405280929190818152602001828054612bcd90614d99565b8015612c1a5780601f10612bef57610100808354040283529160200191612c1a565b820191906000526020600020905b815481529060010190602001808311612bfd57829003601f168201915b5050506002870154604080518082019091526011815270486f73706974616c2f506861726d61637960781b60208201526001600160a01b0390911692503391506137b6565b80612c6981614dd4565b91505061299e565b506002820154600183015460405133926001600160a01b031691600080516020614e1c83398151915291610c899190614c5c565b81516020818401810180516004825292820191850191909120919052805482908110612cd057600080fd5b906000526020600020906005020160009150915050806000018054612cf490614d99565b80601f0160208091040260200160405190810160405280929190818152602001828054612d2090614d99565b8015612d6d5780601f10612d4257610100808354040283529160200191612d6d565b820191906000526020600020905b815481529060010190602001808311612d5057829003601f168201915b5050506001840154600285015460038601805495966001600160a01b0393841696929093169450919250612da090614d99565b80601f0160208091040260200160405190810160405280929190818152602001828054612dcc90614d99565b8015612e195780601f10612dee57610100808354040283529160200191612e19565b820191906000526020600020905b815481529060010190602001808311612dfc57829003601f168201915b5050505050908060040154905085565b60096020526000908152604090205481565b60606000805b600019811015612e94576000818152600660205260409020600201546001600160a01b031615612e7d5781612e7581614dd4565b925050612e82565b612e94565b80612e8c81614dd4565b915050612e41565b506000816001600160401b03811115612ebd57634e487b7160e01b600052604160045260246000fd5b604051908082528060200260200182016040528015612ef657816020015b612ee3613c8f565b815260200190600190039081612edb5790505b50905060005b8281101561167857600081815260066020908152604091829020825160a0810184528154815260018201549281019290925260028101546001600160a01b039081169383019390935260038101549092166060820152600482018054919291608084019190612f6a90614d99565b80601f0160208091040260200160405190810160405280929190818152602001828054612f9690614d99565b8015612fe35780601f10612fb857610100808354040283529160200191612fe3565b820191906000526020600020905b815481529060010190602001808311612fc657829003601f168201915b50505050508152505082828151811061300c57634e487b7160e01b600052603260045260246000fd5b6020026020010181905250808061302290614dd4565b915050612efc565b600082815260016020526040902060028101546001600160a01b031633146130645760405162461bcd60e51b81526004016105d4906149ef565b6001600160a01b03821660009081526009602052604081208054908261308983614dd4565b909155506040805160a0810182528281526020808201888152338385019081526001600160a01b038981166060860190815286518088018852600781526650656e64696e6760c81b818701526080870190815260008981526006875297909720865181559351600185015591516002840180546001600160a01b0319908116928416929092179055915160038401805490931691161790559251805194955091936106b39260048501920190613c0b565b6001600160a01b0381166000908152600c602052604081208054908261315f83614dd4565b909155506040805160c08101825282815260208082018881528284018890523360608401526001600160a01b038716608084015283518085018552600781526650656e64696e6760c81b8184015260a084015260008581526002835293909320825181559251805194955091936124c99260018501920190613c0b565b60606000805b600019811015613235576000818152600860205260409020600201546001600160a01b03161561321e578161321681614dd4565b925050613223565b613235565b8061322d81614dd4565b9150506131e2565b506000816001600160401b0381111561325e57634e487b7160e01b600052604160045260246000fd5b60405190808252806020026020018201604052801561329757816020015b613284613c8f565b81526020019060019003908161327c5790505b50905060005b8281101561167857600081815260086020908152604091829020825160a0810184528154815260018201549281019290925260028101546001600160a01b03908116938301939093526003810154909216606082015260048201805491929160808401919061330b90614d99565b80601f016020809104026020016040519081016040528092919081815260200182805461333790614d99565b80156133845780601f1061335957610100808354040283529160200191613384565b820191906000526020600020905b81548152906001019060200180831161336757829003601f168201915b5050505050815250508282815181106133ad57634e487b7160e01b600052603260045260246000fd5b602002602001018190525080806133c390614dd4565b91505061329d565b60606000805b600019811015613424576000818152600160205260409020600201546001600160a01b03161561340d578161340581614dd4565b925050613412565b613424565b8061341c81614dd4565b9150506133d1565b506000816001600160401b0381111561344d57634e487b7160e01b600052604160045260246000fd5b60405190808252806020026020018201604052801561348657816020015b613473613d18565b81526020019060019003908161346b5790505b50905060005b82811015611678576000818152600160208181526040808420815160c08101835281548152938101805483518186028101860190945280845294959194868501949192909184015b828210156135805783829060005260206000200180546134f390614d99565b80601f016020809104026020016040519081016040528092919081815260200182805461351f90614d99565b801561356c5780601f106135415761010080835404028352916020019161356c565b820191906000526020600020905b81548152906001019060200180831161354f57829003601f168201915b5050505050815260200190600101906134d4565b5050509082525060028201546001600160a01b0390811660208301526003830154166040820152600482015460608201526005820180546080909201916135c690614d99565b80601f01602080910402602001604051908101604052809291908181526020018280546135f290614d99565b801561363f5780601f106136145761010080835404028352916020019161363f565b820191906000526020600020905b81548152906001019060200180831161362257829003601f168201915b50505050508152505082828151811061366857634e487b7160e01b600052603260045260246000fd5b6020026020010181905250808061367e90614dd4565b91505061348c565b61368e613d60565b6000600e836040516136a091906143ca565b90815260405190819003602001902054116136cd5760405162461bcd60e51b81526004016105d490614945565b600e826040516136dd91906143ca565b90815260200160405180910390206001600e846040516136fd91906143ca565b908152604051908190036020019020546137179190614d56565b8154811061373557634e487b7160e01b600052603260045260246000fd5b906000526020600020906003020160405180606001604052908160008201548152602001600182015481526020016002820154815250509050919050565b60076020526000908152604090208054600182015460028301546003840154600485018054949593946001600160a01b039384169492909316926112f690614d99565b6004846040516137c691906143ca565b90815260408051918290036020908101832060a0840183528784526001600160a01b0380881685840152861692840192909252606083018490524260808401528154600181018355600092835291819020835180516005909402909101926138319284920190613c0b565b506020828101516001830180546001600160a01b039283166001600160a01b0319918216179091556040850151600285018054919093169116179055606083015180516138849260038501920190613c0b565b5060808201518160040155505050505050565b835185511480156138a9575082518551145b6138c55760405162461bcd60e51b81526004016105d490614a3b565b60058054600091826138d683614dd4565b909155506040805160c08101825282815260208082018a815233838501526001600160a01b03881660608401526080830187905283518085018552600c81526b13585b9d599858dd1d5c995960a21b8184015260a08401526000858152600180845294902083518155905180519596509294909361395993908501920190613d81565b5060408201516002820180546001600160a01b039283166001600160a01b03199182161790915560608401516003840180549190931691161790556080820151600482015560a082015180516139b9916005840191602090910190613c0b565b5090505060005b8651811015613a5b57613a498782815181106139ec57634e487b7160e01b600052603260045260246000fd5b6020026020010151878381518110613a1457634e487b7160e01b600052603260045260246000fd5b6020026020010151878481518110613a3c57634e487b7160e01b600052603260045260246000fd5b6020026020010151613aa5565b80613a5381614dd4565b9150506139c0565b50336001600160a01b03167f03b090a5f073126ba1311454936e50b13b4eb5a69549338b4886ff9a0c1bfaed82604051613a959190614b28565b60405180910390a2505050505050565b6040518060a00160405280848152602001838152602001828152602001336001600160a01b031681526020016040518060400160405280600c81526020016b13585b9d599858dd1d5c995960a21b815250815250600084604051613b0991906143ca565b90815260200160405180910390206000820151816000019080519060200190613b33929190613c0b565b506020828101518051613b4c9260018501920190613c0b565b506040820151600282015560608201516003820180546001600160a01b0319166001600160a01b0390921691909117905560808201518051613b98916004840191602090910190613c0b565b50506040513391507f90f4623b9ae4efac15363dfb53d053aeceef4a4784ad7138b5628c9feafc87d090613bcd9086906146d2565b60405180910390a2613c06836000336040518060400160405280600c81526020016b13585b9d599858dd1d5c995960a21b8152506137b6565b505050565b828054613c1790614d99565b90600052602060002090601f016020900481019282613c395760008555613c7f565b82601f10613c5257805160ff1916838001178555613c7f565b82800160010185558215613c7f579182015b82811115613c7f578251825591602001919060010190613c64565b50613c8b929150613dda565b5090565b6040518060a00160405280600081526020016000815260200160006001600160a01b0316815260200160006001600160a01b03168152602001606081525090565b6040518060c0016040528060008152602001606081526020016000815260200160006001600160a01b0316815260200160006001600160a01b03168152602001606081525090565b6040518060c00160405280600081526020016060815260200160006001600160a01b0316815260200160006001600160a01b0316815260200160008152602001606081525090565b60405180606001604052806000815260200160008152602001600081525090565b828054828255906000526020600020908101928215613dce579160200282015b82811115613dce5782518051613dbe918491602090910190613c0b565b5091602001919060010190613da1565b50613c8b929150613def565b5b80821115613c8b5760008155600101613ddb565b80821115613c8b576000613e038282613e0c565b50600101613def565b508054613e1890614d99565b6000825580601f10613e2a5750613e48565b601f016020900490600052602060002090810190613e489190613dda565b50565b80356001600160a01b0381168114610e6157600080fd5b600082601f830112613e72578081fd5b81356020613e87613e8283614d33565b614d0a565b82815281810190858301855b85811015613ebc57613eaa898684358b0101613ec9565b84529284019290840190600101613e93565b5090979650505050505050565b600082601f830112613ed9578081fd5b81356001600160401b03811115613ef257613ef2614e05565b613f05601f8201601f1916602001614d0a565b818152846020838601011115613f19578283fd5b816020850160208301379081016020019190915292915050565b600060208284031215613f44578081fd5b613f4d82613e4b565b9392505050565b600060208284031215613f65578081fd5b81356001600160401b03811115613f7a578182fd5b613f8684828501613ec9565b949350505050565b600080600060608486031215613fa2578182fd5b83356001600160401b03811115613fb7578283fd5b613fc386828701613ec9565b9660208601359650604090950135949350505050565b60008060408385031215613feb578182fd5b82356001600160401b03811115614000578283fd5b61400c85828601613ec9565b95602094909401359450505050565b60008060006060848603121561402f578283fd5b83356001600160401b03811115614044578384fd5b61405086828701613ec9565b9350506020840135915061406660408501613e4b565b90509250925092565b600060208284031215614080578081fd5b5035919050565b60008060408385031215614099578182fd5b823591506140a960208401613e4b565b90509250929050565b600080600080608085870312156140c7578081fd5b843593506020808601356001600160401b03808211156140e5578384fd5b6140f189838a01613e62565b95506040880135915080821115614106578384fd5b61411289838a01613e62565b94506060880135915080821115614127578384fd5b508601601f81018813614138578283fd5b8035614146613e8282614d33565b81815283810190838501858402850186018c1015614162578687fd5b8694505b83851015614184578035835260019490940193918501918501614166565b50979a9699509497505050505050565b600080604083850312156141a6578182fd5b50508035926020909101359150565b6001600160a01b03169052565b600081546141cf81614d99565b600182811680156141e757600181146141f857614227565b60ff19841687528287019450614227565b8560005260208060002060005b8581101561421e5781548a820152908401908201614205565b50505082870194505b5050505092915050565b60008151808452614249816020860160208601614d6d565b601f01601f19169290920160200192915050565b6000815461426a81614d99565b808552602060018381168015614287576001811461429b576142c9565b60ff198516888401526040880195506142c9565b866000528260002060005b858110156142c15781548a82018601529083019084016142a6565b890184019650505b505050505092915050565b600b81526a24b7102a3930b739b4ba1960a91b602082015260400190565b6011815270486f73706974616c2f506861726d61637960781b602082015260400190565b600b81526a496e205472616e7369743160a81b602082015260400190565b600a8152692bb437b632b9b0b632b960b11b602082015260400190565b600081518352602082015160c0602085015261437060c0850182614231565b905060408301516040850152606083015160018060a01b038082166060870152806080860151166080870152505060a083015184820360a08601526143b58282614231565b95945050505050565b6000613f4d82846141c2565b600082516143dc818460208701614d6d565b9190910192915050565b60208082528251828201819052600091906040908185019080840286018301878501865b838110156144db57888303603f190185528151805184528781015160c0898601819052815190860181905260e080870192828c02880190910191908b01908c5b818110156144785760df19898503018552614466848451614231565b948d01949350918c019160010161444a565b50505088830151915061448d898701836141b5565b60609150818301516144a1838801826141b5565b506080838101519087015260a092830151868203848801529291506144c68184614231565b978a019795505050918701915060010161440a565b509098975050505050505050565b6000602080830181845280855180835260408601915060408482028701019250838701855b8281101561453c57603f1988860301845261452a858351614351565b9450928501929085019060010161450e565b5092979650505050505050565b6000602080830181845280855180835260408601915060408482028701019250838701855b8281101561453c57603f1988860301845261458a858351614351565b9450928501929085019060010161456e565b60208082528251828201819052600091906040908185019080840286018301878501865b838110156144db57603f19898403018552815160a081518186526145e682870182614231565b838b01516001600160a01b03908116888d01528a850151168a880152606080850151888303828a0152919350915061461e8382614231565b60809485015197909401969096525050948701949250908601906001016145c0565b60208082528251828201819052600091906040908185019080840286018301878501865b838110156144db57888303603f190185528151805184528781015188850152868101516001600160a01b03908116888601526060808301519091169085015260809081015160a0918501829052906146be81860183614231565b968901969450505090860190600101614664565b600060208252613f4d6020830184614231565b600060a082526146f860a0830188614231565b6001600160a01b0387811660208501528616604084015282810360608401526147218186614231565b9150508260808301529695505050505050565b6000608082526147476080830187614231565b6020830195909552506040810192909252606090910152919050565b600060a0825261477660a0830188614231565b82810360208401526147888188614231565b604084018790526001600160a01b0386166060850152838103608085015290506147b28185614231565b98975050505050505050565b6000606082526147d16060830185614231565b8281036020840152601681527548756d6964697479206f7574206f662072616e67652160501b6020820152604081019150508260408301529392505050565b6000606082526148236060830185614231565b8281036020840152601981527f54656d7065726174757265206f7574206f662072616e676521000000000000006020820152604081019150508260408301529392505050565b60006040825261487c604083018461425d565b8281036020840152613f86816142d4565b6000604082526148a0604083018461425d565b8281036020840152613f86816142f2565b6000604082526148c4604083018461425d565b8281036020840152613f8681614316565b6000604082526148e8604083018461425d565b8281036020840152613f8681614334565b6020808252602c908201527f4f6e6c79207468652077686f6c6573616c65722063616e20617070726f76652060408201526b1d1a1a5cc81c995c5d595cdd60a21b606082015260800190565b6020808252601590820152744e6f20496f54206461746120617661696c61626c6560581b604082015260600190565b60208082526013908201527252657175657374206e6f742070656e64696e6760681b604082015260600190565b6020808252602e908201527f4f6e6c7920746865206d616e7566616374757265722063616e20617070726f7660408201526d19481d1a1a5cc81c995c5d595cdd60921b606082015260800190565b6020808252602c908201527f4f6e6c7920746865206f776e65722063616e2063726561746520612064656c6960408201526b1d995c9e481c995c5d595cdd60a21b606082015260800190565b60208082526018908201527f4172726179206c656e67746873206d757374206d617463680000000000000000604082015260600190565b6020808252602c908201527f4f6e6c7920746865206f776e65722063616e206372656174652061207472616e60408201526b1cd9995c881c995c5d595cdd60a21b606082015260800190565b60208082526029908201527f4f6e6c792074686520726563697069656e742063616e2061636365707420746860408201526819481c995c5d595cdd60ba1b606082015260800190565b81518152602080830151908201526040918201519181019190915260600190565b90815260200190565b8581526001600160a01b038581166020830152841660408201526060810183905260a060808201819052600090614b6a90830184614231565b979650505050505050565b9283526020830191909152604082015260600190565b600085825260806020830152614ba46080830186614231565b6040830194909452506001600160a01b039190911660609091015292915050565b600087825260c06020830152614bde60c0830188614231565b604083018790526001600160a01b0386811660608501528516608084015282810360a0840152614c0e8185614231565b9998505050505050505050565b600082825260406020830152613f4d604083016142d4565b90815260406020820181905260089082015267105c1c1c9bdd995960c21b606082015260800190565b600082825260406020830152613f4d604083016142f2565b600082825260406020830152613f4d60408301614316565b600082825260406020830152613f4d60408301614334565b858152602081018590526001600160a01b0384811660408301528316606082015260a060808201819052600090614b6a90830184614231565b91825260208201526060604082018190526007908201526650656e64696e6760c81b608082015260a00190565b6040518181016001600160401b0381118282101715614d2b57614d2b614e05565b604052919050565b60006001600160401b03821115614d4c57614d4c614e05565b5060209081020190565b600082821015614d6857614d68614def565b500390565b60005b83811015614d88578181015183820152602001614d70565b83811115611bc05750506000910152565b600281046001821680614dad57607f821691505b60208210811415614dce57634e487b7160e01b600052602260045260246000fd5b50919050565b6000600019821415614de857614de8614def565b5060010190565b634e487b7160e01b600052601160045260246000fd5b634e487b7160e01b600052604160045260246000fdfe5f9f53aaf015683723f6e51c7b9c52d49f4c315e8d8d7144f504fb40e48b92f61723acd770dc7507af49ba97b7a7e0682b6ed962551dcc20beb7beb147478d4e4be840e351422c3b302abb79aa7db05560ead7e387e413320822a342fca3f54e772cf988c6c8639e7b31e1e4a5786c5eb66313b250ccfb5e941e68626a64b30ea26469706673582212207ed82995ba076b6ea5db10e3379f8236c83b27d09c948678305c31f6e7efb01764736f6c63430008000033",
  "immutableReferences": {},
  "source": "// SPDX-License-Identifier: MIT\r\n\r\npragma solidity ^0.8.0;\r\n\r\ncontract PharmaDistribution {\r\n    struct Drug {\r\n        string qrCode;\r\n        string cryptoKey;\r\n        uint256 expirationDate;\r\n        address currentOwner;\r\n        string status; // Manufactured, In Transit1, Wholesaler, In Transit2, HospitalOrPharmacy\r\n    }\r\n\r\n    struct Request1 {\r\n        uint256 requestId;\r\n        string drugName;\r\n        uint256 quantity;\r\n        address requester;\r\n        address manufacturer;\r\n        string status; // Pending, Approved, Rejected\r\n    }\r\n\r\n    struct Request2 {\r\n        uint256 requestId;\r\n        string drugName;\r\n        uint256 quantity;\r\n        address requester;\r\n        address wholesaler;\r\n        string status; // Pending, Approved, Rejected\r\n    }\r\n\r\n    struct Batch {\r\n        uint256 batchId;\r\n        string[] qrCodes;\r\n        address owner;\r\n        address finalRecipient;\r\n        uint256 quantity;\r\n        string status; // Manufactured, In Transit1, Wholesaler, In Transit2, HospitalOrPharmacy\r\n    }\r\n\r\n    struct TransferRequest {\r\n        uint256 requestId;\r\n        uint256 batchId;\r\n        address requester;\r\n        address recipient;\r\n        string status; // Pending, Accepted, Rejected\r\n    }\r\n\r\n    struct Transaction {\r\n        string qrCode;\r\n        address from;\r\n        address to;\r\n        string status;\r\n        uint256 timestamp;\r\n    }\r\n\r\n    mapping(string => Drug) public drugs;\r\n    mapping(uint256 => Batch) public batches;\r\n    // mapping(uint256 => Request) public requests;\r\n    mapping(uint256 => Request1) public requests1;\r\n    mapping(uint256 => Request2) public requests2;\r\n    mapping(string => Transaction[]) public transactionHistory;\r\n    uint256 public batchCounter;\r\n    // mapping(address => uint256) public manufacturerBatchCounters;\r\n    // mapping(address => uint256) public wholesalerBatchCounters;\r\n    // mapping(address => uint256) public hospitalBatchCounters;\r\n    // mapping(address => uint256) public distributorBatchCounters;\r\n    // uint256 public requestCounter;\r\n    mapping(uint256 => TransferRequest) public distributorRequests;\r\n    mapping(uint256 => TransferRequest) public wholesalerRequests;\r\n    mapping(uint256 => TransferRequest) public hospitalRequests;\r\n    // uint256 public distributorRequestCounter;\r\n    // uint256 public wholesalerRequestCounter;\r\n    // uint256 public hospitalRequestCounter;\r\n\r\n    mapping(address => uint256) public distributorRequestCounters;\r\n    mapping(address => uint256) public wholesalerRequestCounters;\r\n    mapping(address => uint256) public hospitalRequestCounters;\r\n    mapping(address => uint256) public wholesalerRequesttoManufacturerCounters;\r\n    mapping(address => uint256) public hospitalRequesttoWholesalerCounters;\r\n\r\n    struct IoTData {\r\n        uint256 timestamp;\r\n        int256 temperature; // in Celsius\r\n        int256 humidity; // in percentage\r\n    }\r\n\r\n    mapping(string => IoTData[]) public drugIoTData;\r\n\r\n    // Events\r\n    event DrugCreated(string qrCode, address indexed manufacturer);\r\n    event BatchCreated(uint256 batchId, address indexed owner);\r\n    event BatchTransferred(\r\n        uint256 batchId,\r\n        address indexed from,\r\n        address indexed to,\r\n        string status\r\n    );\r\n    event DrugTransferred(\r\n        string qrCode,\r\n        address indexed from,\r\n        address indexed to,\r\n        string status\r\n    );\r\n    event DrugStatusChanged(\r\n        string qrCode,\r\n        string status,\r\n        address indexed newOwner\r\n    );\r\n    event RequestCreated(\r\n        uint256 requestId,\r\n        address indexed requester,\r\n        string drugName,\r\n        uint256 quantity,\r\n        address manufacturer\r\n    );\r\n    event RequestStatusChanged(uint256 requestId, string status);\r\n    event TransferRequestCreated(\r\n        uint256 requestId,\r\n        uint256 batchId,\r\n        address indexed requester,\r\n        address indexed recipient,\r\n        string status\r\n    );\r\n    event DeliveryRequestCreated(\r\n        uint256 requestId,\r\n        uint256 batchId,\r\n        address indexed requester,\r\n        address indexed recipient,\r\n        string status\r\n    );\r\n    event IoTDataUpdated(\r\n        string qrCode,\r\n        int256 temperature,\r\n        int256 humidity,\r\n        uint256 timestamp\r\n    );\r\n    event Alert(string qrCode, string message, uint256 timestamp);\r\n\r\n    // Function to create a drug\r\n    function createDrug(\r\n        string memory qrCode,\r\n        string memory cryptoKey,\r\n        uint256 expirationDate\r\n    ) internal {\r\n        drugs[qrCode] = Drug(\r\n            qrCode,\r\n            cryptoKey,\r\n            expirationDate,\r\n            msg.sender,\r\n            \"Manufactured\"\r\n        );\r\n        emit DrugCreated(qrCode, msg.sender);\r\n\r\n        // Record transaction\r\n        recordTransaction(qrCode, address(0), msg.sender, \"Manufactured\");\r\n    }\r\n\r\n    // Function to create a batch of drugs\r\n    function createBatch(\r\n        string[] memory qrCodes,\r\n        string[] memory cryptoKeys,\r\n        uint256[] memory expirationDates,\r\n        address requesterr,\r\n        uint256 quant\r\n    ) internal {\r\n        require(\r\n            qrCodes.length == cryptoKeys.length &&\r\n                qrCodes.length == expirationDates.length,\r\n            \"Array lengths must match\"\r\n        );\r\n        uint256 batchId = batchCounter++;\r\n        batches[batchId] = Batch(\r\n            batchId,\r\n            qrCodes,\r\n            msg.sender,\r\n            requesterr,\r\n            quant,\r\n            \"Manufactured\"\r\n        );\r\n\r\n        for (uint i = 0; i < qrCodes.length; i++) {\r\n            createDrug(qrCodes[i], cryptoKeys[i], expirationDates[i]);\r\n        }\r\n        emit BatchCreated(batchId, msg.sender);\r\n    }\r\n\r\n    // Function for wholesaler to request drugs from manufacturer\r\n    function requestDrugs(\r\n        string memory drugName,\r\n        uint256 quantity,\r\n        address manufacturer\r\n    ) public {\r\n        uint256 requestId = wholesalerRequesttoManufacturerCounters[\r\n            manufacturer\r\n        ]++;\r\n        requests1[requestId] = Request1(\r\n            requestId,\r\n            drugName,\r\n            quantity,\r\n            msg.sender,\r\n            manufacturer,\r\n            \"Pending\"\r\n        );\r\n        emit RequestCreated(\r\n            requestId,\r\n            msg.sender,\r\n            drugName,\r\n            quantity,\r\n            manufacturer\r\n        );\r\n    }\r\n\r\n    // Function for manufacturer to approve drug request\r\n    function approveRequest(\r\n        uint256 requestId,\r\n        string[] memory qrCodes,\r\n        string[] memory cryptoKeys,\r\n        uint256[] memory expirationDates\r\n    ) public {\r\n        Request1 storage req = requests1[requestId];\r\n        require(\r\n            req.manufacturer == msg.sender,\r\n            \"Only the manufacturer can approve this request\"\r\n        );\r\n        require(\r\n            keccak256(bytes(req.status)) == keccak256(bytes(\"Pending\")),\r\n            \"Request not pending\"\r\n        );\r\n        req.status = \"Approved\";\r\n        createBatch(\r\n            qrCodes,\r\n            cryptoKeys,\r\n            expirationDates,\r\n            req.requester,\r\n            req.quantity\r\n        );\r\n        emit RequestStatusChanged(requestId, \"Approved\");\r\n    }\r\n\r\n    function createTransferRequestToDistributor(\r\n        uint256 batchId,\r\n        address distributor\r\n    ) public {\r\n        Batch storage batch = batches[batchId];\r\n        require(\r\n            batch.owner == msg.sender,\r\n            \"Only the owner can create a transfer request\"\r\n        );\r\n\r\n        uint256 requestId = distributorRequestCounters[distributor]++;\r\n        distributorRequests[requestId] = TransferRequest(\r\n            requestId,\r\n            batchId,\r\n            msg.sender,\r\n            distributor,\r\n            \"Pending\"\r\n        );\r\n\r\n        emit TransferRequestCreated(\r\n            requestId,\r\n            batchId,\r\n            msg.sender,\r\n            distributor,\r\n            \"Pending\"\r\n        );\r\n    }\r\n\r\n    // Function for distributor to accept the transfer request\r\n    function acceptTransferRequestFromManufacturer(uint256 requestId) public {\r\n        TransferRequest storage request = distributorRequests[requestId];\r\n        require(\r\n            request.recipient == msg.sender,\r\n            \"Only the recipient can accept the request\"\r\n        );\r\n        require(\r\n            keccak256(bytes(request.status)) == keccak256(bytes(\"Pending\")),\r\n            \"Request not pending\"\r\n        );\r\n\r\n        request.status = \"Accepted\";\r\n        Batch storage batch = batches[request.batchId];\r\n        batch.owner = msg.sender;\r\n        batch.status = \"In Transit1\";\r\n\r\n        for (uint i = 0; i < batch.qrCodes.length; i++) {\r\n            drugs[batch.qrCodes[i]].currentOwner = msg.sender;\r\n            drugs[batch.qrCodes[i]].status = \"In Transit1\";\r\n            emit DrugTransferred(\r\n                batch.qrCodes[i],\r\n                request.requester,\r\n                msg.sender,\r\n                \"In Transit1\"\r\n            );\r\n            emit DrugStatusChanged(batch.qrCodes[i], \"In Transit1\", msg.sender);\r\n\r\n            // Record transaction\r\n            recordTransaction(\r\n                batch.qrCodes[i],\r\n                request.requester,\r\n                msg.sender,\r\n                \"In Transit1\"\r\n            );\r\n        }\r\n\r\n        emit BatchTransferred(\r\n            request.batchId,\r\n            request.requester,\r\n            msg.sender,\r\n            \"In Transit1\"\r\n        );\r\n    }\r\n\r\n    // Function for distributor to create a delivery request to wholesaler\r\n    function createDeliveryRequestToWholesaler(\r\n        uint256 batchId,\r\n        address wholesaler\r\n    ) public {\r\n        Batch storage batch = batches[batchId];\r\n        require(\r\n            batch.owner == msg.sender,\r\n            \"Only the owner can create a delivery request\"\r\n        );\r\n\r\n        uint256 requestId = wholesalerRequestCounters[wholesaler]++;\r\n        wholesalerRequests[requestId] = TransferRequest(\r\n            requestId,\r\n            batchId,\r\n            msg.sender,\r\n            wholesaler,\r\n            \"Pending\"\r\n        );\r\n\r\n        emit DeliveryRequestCreated(\r\n            requestId,\r\n            batchId,\r\n            msg.sender,\r\n            wholesaler,\r\n            \"Pending\"\r\n        );\r\n    }\r\n\r\n    // Function for wholesaler to accept the delivery request\r\n    function acceptDeliveryRequestFromDistributor1(uint256 requestId) public {\r\n        TransferRequest storage request = wholesalerRequests[requestId];\r\n        require(\r\n            request.recipient == msg.sender,\r\n            \"Only the recipient can accept the request\"\r\n        );\r\n        require(\r\n            keccak256(bytes(request.status)) == keccak256(bytes(\"Pending\")),\r\n            \"Request not pending\"\r\n        );\r\n\r\n        request.status = \"Accepted\";\r\n        Batch storage batch = batches[request.batchId];\r\n        batch.owner = msg.sender;\r\n        batch.status = \"Wholesaler\";\r\n\r\n        for (uint i = 0; i < batch.qrCodes.length; i++) {\r\n            drugs[batch.qrCodes[i]].currentOwner = msg.sender;\r\n            drugs[batch.qrCodes[i]].status = \"Wholesaler\";\r\n            emit DrugTransferred(\r\n                batch.qrCodes[i],\r\n                request.requester,\r\n                msg.sender,\r\n                \"Wholesaler\"\r\n            );\r\n            emit DrugStatusChanged(batch.qrCodes[i], \"Wholesaler\", msg.sender);\r\n\r\n            // Record transaction\r\n            recordTransaction(\r\n                batch.qrCodes[i],\r\n                request.requester,\r\n                msg.sender,\r\n                \"Wholesaler\"\r\n            );\r\n        }\r\n\r\n        emit BatchTransferred(\r\n            request.batchId,\r\n            request.requester,\r\n            msg.sender,\r\n            \"Wholesaler\"\r\n        );\r\n    }\r\n\r\n    // Function for hospital/pharmacy to request drugs from wholesaler\r\n    function requestDrugsFromWholesaler(\r\n        string memory drugName,\r\n        uint256 quantity,\r\n        address wholesaler\r\n    ) public {\r\n        uint256 requestId = hospitalRequesttoWholesalerCounters[wholesaler]++;\r\n        requests2[requestId] = Request2(\r\n            requestId,\r\n            drugName,\r\n            quantity,\r\n            msg.sender,\r\n            wholesaler,\r\n            \"Pending\"\r\n        );\r\n        emit RequestCreated(\r\n            requestId,\r\n            msg.sender,\r\n            drugName,\r\n            quantity,\r\n            wholesaler\r\n        );\r\n    }\r\n\r\n    function changeFinalStat(uint256 batchId, address requesterr) public {\r\n        Batch storage batch = batches[batchId];\r\n        batch.finalRecipient = requesterr;\r\n    }\r\n\r\n    // Function for wholesaler to approve drug request\r\n    function approveRequestFromHospital(\r\n        uint256 requestId,\r\n        uint256 batchId\r\n    ) public {\r\n        Request2 storage req = requests2[requestId];\r\n        require(\r\n            req.wholesaler == msg.sender,\r\n            \"Only the wholesaler can approve this request\"\r\n        );\r\n        require(\r\n            keccak256(bytes(req.status)) == keccak256(bytes(\"Pending\")),\r\n            \"Request not pending\"\r\n        );\r\n        req.status = \"Approved\";\r\n        changeFinalStat(batchId, req.requester);\r\n        emit RequestStatusChanged(requestId, \"Approved\");\r\n    }\r\n\r\n    function createDeliveryRequestToDistributor(\r\n        uint256 batchId,\r\n        address distributor\r\n    ) public {\r\n        Batch storage batch = batches[batchId];\r\n        require(\r\n            batch.owner == msg.sender,\r\n            \"Only the owner can create a delivery request\"\r\n        );\r\n\r\n        uint256 requestId = distributorRequestCounters[distributor]++;\r\n        distributorRequests[requestId] = TransferRequest(\r\n            requestId,\r\n            batchId,\r\n            msg.sender,\r\n            distributor,\r\n            \"Pending\"\r\n        );\r\n\r\n        emit DeliveryRequestCreated(\r\n            requestId,\r\n            batchId,\r\n            msg.sender,\r\n            distributor,\r\n            \"Pending\"\r\n        );\r\n    }\r\n\r\n    // Function for hospital/pharmacy to accept the delivery request\r\n    function acceptDeliveryRequestFromWholesaler(uint256 requestId) public {\r\n        TransferRequest storage request = distributorRequests[requestId];\r\n        require(\r\n            request.recipient == msg.sender,\r\n            \"Only the recipient can accept the request\"\r\n        );\r\n        require(\r\n            keccak256(bytes(request.status)) == keccak256(bytes(\"Pending\")),\r\n            \"Request not pending\"\r\n        );\r\n\r\n        request.status = \"Accepted\";\r\n        Batch storage batch = batches[request.batchId];\r\n        batch.owner = msg.sender;\r\n        batch.status = \"In Transit2\";\r\n\r\n        for (uint i = 0; i < batch.qrCodes.length; i++) {\r\n            drugs[batch.qrCodes[i]].currentOwner = msg.sender;\r\n            drugs[batch.qrCodes[i]].status = \"In Transit2\";\r\n            emit DrugTransferred(\r\n                batch.qrCodes[i],\r\n                request.requester,\r\n                msg.sender,\r\n                \"In Transit2\"\r\n            );\r\n            emit DrugStatusChanged(batch.qrCodes[i], \"In Transit2\", msg.sender);\r\n\r\n            // Record transaction\r\n            recordTransaction(\r\n                batch.qrCodes[i],\r\n                request.requester,\r\n                msg.sender,\r\n                \"In Transit2\"\r\n            );\r\n        }\r\n\r\n        emit BatchTransferred(\r\n            request.batchId,\r\n            request.requester,\r\n            msg.sender,\r\n            \"In Transit2\"\r\n        );\r\n    }\r\n\r\n    function createDeliveryRequestToHospital(\r\n        uint256 batchId,\r\n        address hospital\r\n    ) public {\r\n        Batch storage batch = batches[batchId];\r\n        require(\r\n            batch.owner == msg.sender,\r\n            \"Only the owner can create a delivery request\"\r\n        );\r\n\r\n        uint256 requestId = hospitalRequestCounters[hospital]++;\r\n        hospitalRequests[requestId] = TransferRequest(\r\n            requestId,\r\n            batchId,\r\n            msg.sender,\r\n            hospital,\r\n            \"Pending\"\r\n        );\r\n\r\n        emit DeliveryRequestCreated(\r\n            requestId,\r\n            batchId,\r\n            msg.sender,\r\n            hospital,\r\n            \"Pending\"\r\n        );\r\n    }\r\n\r\n    function acceptDeliveryRequestFromDistributor2(uint256 requestId) public {\r\n        TransferRequest storage request = hospitalRequests[requestId];\r\n        require(\r\n            request.recipient == msg.sender,\r\n            \"Only the recipient can accept the request\"\r\n        );\r\n        require(\r\n            keccak256(bytes(request.status)) == keccak256(bytes(\"Pending\")),\r\n            \"Request not pending\"\r\n        );\r\n\r\n        request.status = \"Accepted\";\r\n        Batch storage batch = batches[request.batchId];\r\n        batch.owner = msg.sender;\r\n        batch.status = \"Hospital/Pharmacy\";\r\n\r\n        for (uint i = 0; i < batch.qrCodes.length; i++) {\r\n            drugs[batch.qrCodes[i]].currentOwner = msg.sender;\r\n            drugs[batch.qrCodes[i]].status = \"Hospital/Pharmacy\";\r\n            emit DrugTransferred(\r\n                batch.qrCodes[i],\r\n                request.requester,\r\n                msg.sender,\r\n                \"Hospital/Pharmacy\"\r\n            );\r\n            emit DrugStatusChanged(\r\n                batch.qrCodes[i],\r\n                \"Hospital/Pharmacy\",\r\n                msg.sender\r\n            );\r\n\r\n            // Record transaction\r\n            recordTransaction(\r\n                batch.qrCodes[i],\r\n                request.requester,\r\n                msg.sender,\r\n                \"Hospital/Pharmacy\"\r\n            );\r\n        }\r\n\r\n        emit BatchTransferred(\r\n            request.batchId,\r\n            request.requester,\r\n            msg.sender,\r\n            \"Hospital/Pharmacy\"\r\n        );\r\n    }\r\n\r\n    function updateIoTData(\r\n        string memory qrCode,\r\n        int256 temperature,\r\n        int256 humidity\r\n    ) public {\r\n        IoTData memory data = IoTData(block.timestamp, temperature, humidity);\r\n        drugIoTData[qrCode].push(data);\r\n\r\n        emit IoTDataUpdated(qrCode, temperature, humidity, block.timestamp);\r\n\r\n        // Check conditions and emit alert if out of range\r\n        if (temperature < 2 || temperature > 8) {\r\n            // Example temperature range: 2-8 Celsius\r\n            emit Alert(qrCode, \"Temperature out of range!\", block.timestamp);\r\n        }\r\n        if (humidity < 30 || humidity > 50) {\r\n            // Example humidity range: 30-50%\r\n            emit Alert(qrCode, \"Humidity out of range!\", block.timestamp);\r\n        }\r\n    }\r\n\r\n    function getLatestIoTData(\r\n        string memory qrCode\r\n    ) public view returns (IoTData memory) {\r\n        require(drugIoTData[qrCode].length > 0, \"No IoT data available\");\r\n        return drugIoTData[qrCode][drugIoTData[qrCode].length - 1];\r\n    }\r\n\r\n    // Function to record transactions\r\n    function recordTransaction(\r\n        string memory qrCode,\r\n        address from,\r\n        address to,\r\n        string memory status\r\n    ) internal {\r\n        transactionHistory[qrCode].push(\r\n            Transaction(qrCode, from, to, status, block.timestamp)\r\n        );\r\n    }\r\n\r\n    // Function to get transaction history for a drug\r\n    function getTransactionHistory(\r\n        string memory qrCode\r\n    ) public view returns (Transaction[] memory) {\r\n        return transactionHistory[qrCode];\r\n    }\r\n\r\n    function getAllBatches() public view returns (Batch[] memory) {\r\n        uint256 count = 0;\r\n        for (uint256 i = 0; i < type(uint256).max; i++) {\r\n            if (batches[i].owner != address(0)) {\r\n                count++;\r\n            } else {\r\n                break;\r\n            }\r\n        }\r\n\r\n        Batch[] memory allBatches = new Batch[](count);\r\n        for (uint256 i = 0; i < count; i++) {\r\n            allBatches[i] = batches[i];\r\n        }\r\n        return allBatches;\r\n    }\r\n\r\n    // Function to get all contents of requests1 mapping\r\n    function getAllRequests1() public view returns (Request1[] memory) {\r\n        uint256 count = 0;\r\n        for (uint256 i = 0; i < type(uint256).max; i++) {\r\n            if (requests1[i].requester != address(0)) {\r\n                count++;\r\n            } else {\r\n                break;\r\n            }\r\n        }\r\n\r\n        Request1[] memory allRequests1 = new Request1[](count);\r\n        for (uint256 i = 0; i < count; i++) {\r\n            allRequests1[i] = requests1[i];\r\n        }\r\n        return allRequests1;\r\n    }\r\n\r\n    // Function to get all contents of requests2 mapping\r\n    function getAllRequests2() public view returns (Request2[] memory) {\r\n        uint256 count = 0;\r\n        for (uint256 i = 0; i < type(uint256).max; i++) {\r\n            if (requests2[i].requester != address(0)) {\r\n                count++;\r\n            } else {\r\n                break;\r\n            }\r\n        }\r\n\r\n        Request2[] memory allRequests2 = new Request2[](count);\r\n        for (uint256 i = 0; i < count; i++) {\r\n            allRequests2[i] = requests2[i];\r\n        }\r\n        return allRequests2;\r\n    }\r\n\r\n    // Function to get all contents of distributorRequests mapping\r\n    function getAllDistributorRequests()\r\n        public\r\n        view\r\n        returns (TransferRequest[] memory)\r\n    {\r\n        uint256 count = 0;\r\n        for (uint256 i = 0; i < type(uint256).max; i++) {\r\n            if (distributorRequests[i].requester != address(0)) {\r\n                count++;\r\n            } else {\r\n                break;\r\n            }\r\n        }\r\n\r\n        TransferRequest[] memory allDistributorRequests = new TransferRequest[](\r\n            count\r\n        );\r\n        for (uint256 i = 0; i < count; i++) {\r\n            allDistributorRequests[i] = distributorRequests[i];\r\n        }\r\n        return allDistributorRequests;\r\n    }\r\n\r\n    // Function to get all contents of wholesalerRequests mapping\r\n    function getAllWholesalerRequests()\r\n        public\r\n        view\r\n        returns (TransferRequest[] memory)\r\n    {\r\n        uint256 count = 0;\r\n        for (uint256 i = 0; i < type(uint256).max; i++) {\r\n            if (wholesalerRequests[i].requester != address(0)) {\r\n                count++;\r\n            } else {\r\n                break;\r\n            }\r\n        }\r\n\r\n        TransferRequest[] memory allWholesalerRequests = new TransferRequest[](\r\n            count\r\n        );\r\n        for (uint256 i = 0; i < count; i++) {\r\n            allWholesalerRequests[i] = wholesalerRequests[i];\r\n        }\r\n        return allWholesalerRequests;\r\n    }\r\n\r\n    // Function to get all contents of hospitalRequests mapping\r\n    function getAllHospitalRequests()\r\n        public\r\n        view\r\n        returns (TransferRequest[] memory)\r\n    {\r\n        uint256 count = 0;\r\n        for (uint256 i = 0; i < type(uint256).max; i++) {\r\n            if (hospitalRequests[i].requester != address(0)) {\r\n                count++;\r\n            } else {\r\n                break;\r\n            }\r\n        }\r\n\r\n        TransferRequest[] memory allHospitalRequests = new TransferRequest[](\r\n            count\r\n        );\r\n        for (uint256 i = 0; i < count; i++) {\r\n            allHospitalRequests[i] = hospitalRequests[i];\r\n        }\r\n        return allHospitalRequests;\r\n    }\r\n}\r\n\r\n// Function to get all contents of batches mapping\r\n",
  "sourcePath": "C:\\Users\\HP\\Desktop\\medKART\\frontend\\src\\contracts\\Drugs.sol",
  "compiler": {
    "name": "solc",
    "version": "0.8.0+commit.c7dfd78e.Emscripten.clang"
  },
  "schemaVersion": "3.4.16",
  "updatedAt": "2024-08-09T13:52:01.421Z",
  "networkType": "ethereum",
  "devdoc": {
    "kind": "dev",
    "methods": {},
    "version": 1
  },
  "userdoc": {
    "kind": "user",
    "methods": {},
    "version": 1
  }
}