{
  "contractName": "PharmaChain",
  "abi": [
    {
      "inputs": [],
      "stateMutability": "nonpayable",
      "type": "constructor"
    },
    {
      "inputs": [
        {
          "internalType": "uint256",
          "name": "",
          "type": "uint256"
        }
      ],
      "name": "distributorAccounts",
      "outputs": [
        {
          "internalType": "address",
          "name": "",
          "type": "address"
        }
      ],
      "stateMutability": "view",
      "type": "function",
      "constant": true
    },
    {
      "inputs": [
        {
          "internalType": "address",
          "name": "",
          "type": "address"
        }
      ],
      "name": "distributors",
      "outputs": [
        {
          "internalType": "string",
          "name": "username",
          "type": "string"
        },
        {
          "internalType": "address",
          "name": "account",
          "type": "address"
        }
      ],
      "stateMutability": "view",
      "type": "function",
      "constant": true
    },
    {
      "inputs": [
        {
          "internalType": "address",
          "name": "",
          "type": "address"
        }
      ],
      "name": "hospitalpharmacies",
      "outputs": [
        {
          "internalType": "string",
          "name": "username",
          "type": "string"
        },
        {
          "internalType": "address",
          "name": "account",
          "type": "address"
        }
      ],
      "stateMutability": "view",
      "type": "function",
      "constant": true
    },
    {
      "inputs": [
        {
          "internalType": "uint256",
          "name": "",
          "type": "uint256"
        }
      ],
      "name": "hospitalpharmacyAccounts",
      "outputs": [
        {
          "internalType": "address",
          "name": "",
          "type": "address"
        }
      ],
      "stateMutability": "view",
      "type": "function",
      "constant": true
    },
    {
      "inputs": [
        {
          "internalType": "uint256",
          "name": "",
          "type": "uint256"
        }
      ],
      "name": "manufacturerAccounts",
      "outputs": [
        {
          "internalType": "address",
          "name": "",
          "type": "address"
        }
      ],
      "stateMutability": "view",
      "type": "function",
      "constant": true
    },
    {
      "inputs": [
        {
          "internalType": "address",
          "name": "",
          "type": "address"
        }
      ],
      "name": "manufacturers",
      "outputs": [
        {
          "internalType": "string",
          "name": "username",
          "type": "string"
        },
        {
          "internalType": "address",
          "name": "account",
          "type": "address"
        }
      ],
      "stateMutability": "view",
      "type": "function",
      "constant": true
    },
    {
      "inputs": [],
      "name": "owner",
      "outputs": [
        {
          "internalType": "address",
          "name": "",
          "type": "address"
        }
      ],
      "stateMutability": "view",
      "type": "function",
      "constant": true
    },
    {
      "inputs": [
        {
          "internalType": "uint256",
          "name": "",
          "type": "uint256"
        }
      ],
      "name": "wholesalerAccounts",
      "outputs": [
        {
          "internalType": "address",
          "name": "",
          "type": "address"
        }
      ],
      "stateMutability": "view",
      "type": "function",
      "constant": true
    },
    {
      "inputs": [
        {
          "internalType": "address",
          "name": "",
          "type": "address"
        }
      ],
      "name": "wholesalers",
      "outputs": [
        {
          "internalType": "string",
          "name": "username",
          "type": "string"
        },
        {
          "internalType": "address",
          "name": "account",
          "type": "address"
        }
      ],
      "stateMutability": "view",
      "type": "function",
      "constant": true
    },
    {
      "inputs": [
        {
          "internalType": "string",
          "name": "_username",
          "type": "string"
        },
        {
          "internalType": "address",
          "name": "_account",
          "type": "address"
        }
      ],
      "name": "registerManufacturer",
      "outputs": [],
      "stateMutability": "nonpayable",
      "type": "function"
    },
    {
      "inputs": [
        {
          "internalType": "address",
          "name": "_account",
          "type": "address"
        }
      ],
      "name": "getManufacturer",
      "outputs": [
        {
          "components": [
            {
              "internalType": "string",
              "name": "username",
              "type": "string"
            },
            {
              "internalType": "address",
              "name": "account",
              "type": "address"
            }
          ],
          "internalType": "struct PharmaChain.Manufacturer",
          "name": "",
          "type": "tuple"
        }
      ],
      "stateMutability": "view",
      "type": "function",
      "constant": true
    },
    {
      "inputs": [
        {
          "internalType": "string",
          "name": "_username",
          "type": "string"
        },
        {
          "internalType": "address",
          "name": "_account",
          "type": "address"
        }
      ],
      "name": "registerWholesaler",
      "outputs": [],
      "stateMutability": "nonpayable",
      "type": "function"
    },
    {
      "inputs": [
        {
          "internalType": "address",
          "name": "_account",
          "type": "address"
        }
      ],
      "name": "getWholesaler",
      "outputs": [
        {
          "components": [
            {
              "internalType": "string",
              "name": "username",
              "type": "string"
            },
            {
              "internalType": "address",
              "name": "account",
              "type": "address"
            }
          ],
          "internalType": "struct PharmaChain.Wholesaler",
          "name": "",
          "type": "tuple"
        }
      ],
      "stateMutability": "view",
      "type": "function",
      "constant": true
    },
    {
      "inputs": [
        {
          "internalType": "string",
          "name": "_username",
          "type": "string"
        },
        {
          "internalType": "address",
          "name": "_account",
          "type": "address"
        }
      ],
      "name": "registerDistributor",
      "outputs": [],
      "stateMutability": "nonpayable",
      "type": "function"
    },
    {
      "inputs": [
        {
          "internalType": "address",
          "name": "_account",
          "type": "address"
        }
      ],
      "name": "getDistributor",
      "outputs": [
        {
          "components": [
            {
              "internalType": "string",
              "name": "username",
              "type": "string"
            },
            {
              "internalType": "address",
              "name": "account",
              "type": "address"
            }
          ],
          "internalType": "struct PharmaChain.Distributor",
          "name": "",
          "type": "tuple"
        }
      ],
      "stateMutability": "view",
      "type": "function",
      "constant": true
    },
    {
      "inputs": [
        {
          "internalType": "string",
          "name": "_username",
          "type": "string"
        },
        {
          "internalType": "address",
          "name": "_account",
          "type": "address"
        }
      ],
      "name": "registerHospitalPharmacy",
      "outputs": [],
      "stateMutability": "nonpayable",
      "type": "function"
    },
    {
      "inputs": [
        {
          "internalType": "address",
          "name": "_account",
          "type": "address"
        }
      ],
      "name": "getHospitalPharmacy",
      "outputs": [
        {
          "components": [
            {
              "internalType": "string",
              "name": "username",
              "type": "string"
            },
            {
              "internalType": "address",
              "name": "account",
              "type": "address"
            }
          ],
          "internalType": "struct PharmaChain.HospitalPharmacy",
          "name": "",
          "type": "tuple"
        }
      ],
      "stateMutability": "view",
      "type": "function",
      "constant": true
    },
    {
      "inputs": [],
      "name": "getAllDistributors",
      "outputs": [
        {
          "internalType": "address[]",
          "name": "",
          "type": "address[]"
        }
      ],
      "stateMutability": "view",
      "type": "function",
      "constant": true
    },
    {
      "inputs": [],
      "name": "getAllWholesalers",
      "outputs": [
        {
          "internalType": "address[]",
          "name": "",
          "type": "address[]"
        }
      ],
      "stateMutability": "view",
      "type": "function",
      "constant": true
    },
    {
      "inputs": [],
      "name": "getAllManufacturers",
      "outputs": [
        {
          "internalType": "address[]",
          "name": "",
          "type": "address[]"
        }
      ],
      "stateMutability": "view",
      "type": "function",
      "constant": true
    },
    {
      "inputs": [],
      "name": "getAllHospitalPharmacies",
      "outputs": [
        {
          "internalType": "address[]",
          "name": "",
          "type": "address[]"
        }
      ],
      "stateMutability": "view",
      "type": "function",
      "constant": true
    }
  ],
  "bytecode": "0x608060405234801561001057600080fd5b50600080546001600160a01b0319163317905561115f806100326000396000f3fe608060405234801561001057600080fd5b50600436106101375760003560e01c80634ad1b5b1116100b85780638e24c34b1161007c5780638e24c34b14610278578063993df8c614610280578063cc64278414610293578063d5e96197146102a6578063ddba07a4146102b9578063f009deb1146102c157610137565b80634ad1b5b1146102225780636b5eb09c1461023757806371c8df0d1461024a57806384f56b1d1461025d5780638da5cb5b1461027057610137565b8063290fcfb1116100ff578063290fcfb1146101cc57806334b084e8146101e15780634037f85c146101e957806341aa4a30146101fc57806348fb7bc21461020f57610137565b806301e960f81461013c5780630569c60614610165578063062a70ec14610186578063191bcef6146101995780631b49e651146101b9575b600080fd5b61014f61014a366004610e8a565b6102d4565b60405161015c9190610f1f565b60405180910390f35b610178610173366004610db6565b6102fe565b60405161015c929190610f80565b61014f610194366004610e8a565b6103ab565b6101ac6101a7366004610db6565b6103bb565b60405161015c91906110c5565b61014f6101c7366004610e8a565b6104c1565b6101d46104d1565b60405161015c9190610f33565b6101d4610533565b61014f6101f7366004610e8a565b610593565b61017861020a366004610db6565b6105a3565b6101ac61021d366004610db6565b6105be565b610235610230366004610dd7565b6106b3565b005b610178610245366004610db6565b610786565b610235610258366004610dd7565b6107a1565b61023561026b366004610dd7565b610874565b61014f610947565b6101d4610956565b6101ac61028e366004610db6565b6109b6565b6101786102a1366004610db6565b610aab565b6101ac6102b4366004610db6565b610ac6565b6101d4610bbb565b6102356102cf366004610dd7565b610c1b565b600281815481106102e457600080fd5b6000918252602090912001546001600160a01b0316905081565b600760205260009081526040902080548190610319906110d8565b80601f0160208091040260200160405190810160405280929190818152602001828054610345906110d8565b80156103925780601f1061036757610100808354040283529160200191610392565b820191906000526020600020905b81548152906001019060200180831161037557829003601f168201915b505050600190930154919250506001600160a01b031682565b600881815481106102e457600080fd5b6103c3610cee565b6001600160a01b03821660009081526001602052604080822081518083019092528054829082906103f3906110d8565b80601f016020809104026020016040519081016040528092919081815260200182805461041f906110d8565b801561046c5780601f106104415761010080835404028352916020019161046c565b820191906000526020600020905b81548152906001019060200180831161044f57829003601f168201915b5050509183525050600191909101546001600160a01b0390811660209283015290820151919250166104b95760405162461bcd60e51b81526004016104b090611022565b60405180910390fd5b90505b919050565b600681815481106102e457600080fd5b6060600480548060200260200160405190810160405280929190818152602001828054801561052957602002820191906000526020600020905b81546001600160a01b0316815260019091019060200180831161050b575b5050505050905090565b60606008805480602002602001604051908101604052809291908181526020018280548015610529576020028201919060005260206000209081546001600160a01b0316815260019091019060200180831161050b575050505050905090565b600481815481106102e457600080fd5b600360205260009081526040902080548190610319906110d8565b6105c6610cee565b6001600160a01b03821660009081526007602052604080822081518083019092528054829082906105f6906110d8565b80601f0160208091040260200160405190810160405280929190818152602001828054610622906110d8565b801561066f5780601f106106445761010080835404028352916020019161066f565b820191906000526020600020905b81548152906001019060200180831161065257829003601f168201915b5050509183525050600191909101546001600160a01b0390811660209283015290820151919250166104b95760405162461bcd60e51b81526004016104b090611059565b6000546001600160a01b031633146106dd5760405162461bcd60e51b81526004016104b090610faa565b6040805180820182528381526001600160a01b0383166020808301829052600091825260078152929020815180519293919261071c9284920190610d06565b5060209190910151600191820180546001600160a01b03199081166001600160a01b03938416179091556008805493840181556000527ff3f7a9fe364faab93b216da50a3214154f22a0a2b415b23a84c8169e8b636ee39092018054909216921691909117905550565b600160205260009081526040902080548190610319906110d8565b6000546001600160a01b031633146107cb5760405162461bcd60e51b81526004016104b090610faa565b6040805180820182528381526001600160a01b0383166020808301829052600091825260038152929020815180519293919261080a9284920190610d06565b5060209190910151600191820180546001600160a01b03199081166001600160a01b03938416179091556004805493840181556000527f8a35acfbc15ff81a39ae7d344fd709f28e8600b4aa8c65c6b64bfe7fe36bd19b9092018054909216921691909117905550565b6000546001600160a01b0316331461089e5760405162461bcd60e51b81526004016104b090610faa565b6040805180820182528381526001600160a01b038316602080830182905260009182526005815292902081518051929391926108dd9284920190610d06565b5060209190910151600191820180546001600160a01b03199081166001600160a01b03938416179091556006805493840181556000527ff652222313e28459528d920b65115c16c04f3efc82aaedc97be59f3f377c0d3f9092018054909216921691909117905550565b6000546001600160a01b031681565b60606006805480602002602001604051908101604052809291908181526020018280548015610529576020028201919060005260206000209081546001600160a01b0316815260019091019060200180831161050b575050505050905090565b6109be610cee565b6001600160a01b03821660009081526005602052604080822081518083019092528054829082906109ee906110d8565b80601f0160208091040260200160405190810160405280929190818152602001828054610a1a906110d8565b8015610a675780601f10610a3c57610100808354040283529160200191610a67565b820191906000526020600020905b815481529060010190602001808311610a4a57829003601f168201915b5050509183525050600191909101546001600160a01b0390811660209283015290820151919250166104b95760405162461bcd60e51b81526004016104b09061108e565b600560205260009081526040902080548190610319906110d8565b610ace610cee565b6001600160a01b0382166000908152600360205260408082208151808301909252805482908290610afe906110d8565b80601f0160208091040260200160405190810160405280929190818152602001828054610b2a906110d8565b8015610b775780601f10610b4c57610100808354040283529160200191610b77565b820191906000526020600020905b815481529060010190602001808311610b5a57829003601f168201915b5050509183525050600191909101546001600160a01b0390811660209283015290820151919250166104b95760405162461bcd60e51b81526004016104b090610feb565b60606002805480602002602001604051908101604052809291908181526020018280548015610529576020028201919060005260206000209081546001600160a01b0316815260019091019060200180831161050b575050505050905090565b6000546001600160a01b03163314610c455760405162461bcd60e51b81526004016104b090610faa565b6040805180820182528381526001600160a01b03831660208083018290526000918252600181529290208151805192939192610c849284920190610d06565b5060209190910151600191820180546001600160a01b03199081166001600160a01b03938416179091556002805493840181556000527f405787fa12a823e0f2b7631cc41b3ba8828b3321ca811111fa75cd3aa3bb5ace9092018054909216921691909117905550565b60408051808201909152606081526000602082015290565b828054610d12906110d8565b90600052602060002090601f016020900481019282610d345760008555610d7a565b82601f10610d4d57805160ff1916838001178555610d7a565b82800160010185558215610d7a579182015b82811115610d7a578251825591602001919060010190610d5f565b50610d86929150610d8a565b5090565b5b80821115610d865760008155600101610d8b565b80356001600160a01b03811681146104bc57600080fd5b600060208284031215610dc7578081fd5b610dd082610d9f565b9392505050565b60008060408385031215610de9578081fd5b823567ffffffffffffffff80821115610e00578283fd5b818501915085601f830112610e13578283fd5b8135602082821115610e2757610e27611113565b604051601f8301601f1916810182018481118282101715610e4a57610e4a611113565b6040528281528483018201891015610e60578586fd5b828286018383013780830182018690529550610e7d878201610d9f565b9450505050509250929050565b600060208284031215610e9b578081fd5b5035919050565b60008151808452815b81811015610ec757602081850181015186830182015201610eab565b81811115610ed85782602083870101525b50601f01601f19169290920160200192915050565b6000815160408452610f026040850182610ea2565b6020938401516001600160a01b0316949093019390935250919050565b6001600160a01b0391909116815260200190565b6020808252825182820181905260009190848201906040850190845b81811015610f745783516001600160a01b031683529284019291840191600101610f4f565b50909695505050505050565b600060408252610f936040830185610ea2565b905060018060a01b03831660208301529392505050565b60208082526021908201527f4f6e6c79206f776e65722063616e2063616c6c20746869732066756e6374696f6040820152603760f91b606082015260800190565b60208082526019908201527f57686f6c6573616c657220646f6573206e6f7420657869737400000000000000604082015260600190565b6020808252601b908201527f4d616e75666163747572657220646f6573206e6f742065786973740000000000604082015260600190565b6020808252818101527f486f73706974616c2f506861726d61637920646f6573206e6f74206578697374604082015260600190565b6020808252601a908201527f4469737472696275746f7220646f6573206e6f74206578697374000000000000604082015260600190565b600060208252610dd06020830184610eed565b6002810460018216806110ec57607f821691505b6020821081141561110d57634e487b7160e01b600052602260045260246000fd5b50919050565b634e487b7160e01b600052604160045260246000fdfea2646970667358221220ccbbeca7d681c879308eee6ee3eeb8d4ff996afba4fbd98a74e5f55692b1f4c364736f6c63430008000033",
  "immutableReferences": {},
  "source": "// SPDX-License-Identifier: MIT\r\npragma solidity ^0.8.0;\r\n\r\ncontract PharmaChain {\r\n    address public owner;\r\n\r\n    struct Manufacturer {\r\n        string username;\r\n        address account;\r\n    }\r\n\r\n    mapping(address => Manufacturer) public manufacturers;\r\n    address[] public manufacturerAccounts;\r\n\r\n    struct Wholesaler {\r\n        string username;\r\n        address account;\r\n    }\r\n\r\n    mapping(address => Wholesaler) public wholesalers;\r\n     address[] public wholesalerAccounts;\r\n\r\n    struct Distributor {\r\n        string username;\r\n        address account;\r\n    }\r\n\r\n    mapping(address => Distributor) public distributors;\r\n    address[] public distributorAccounts;\r\n\r\n    struct HospitalPharmacy {\r\n        string username;\r\n        address account;\r\n    }\r\n\r\n    mapping(address => HospitalPharmacy) public hospitalpharmacies;\r\n     address[] public hospitalpharmacyAccounts;\r\n\r\n    modifier onlyOwner() {\r\n        require(msg.sender == owner, \"Only owner can call this function\");\r\n        _;\r\n    }\r\n\r\n    constructor() {\r\n        owner = msg.sender;\r\n    }\r\n\r\n    function registerManufacturer(string memory _username, address _account) public onlyOwner {\r\n        manufacturers[_account] = Manufacturer(_username, _account);\r\n        manufacturerAccounts.push(_account);\r\n    }\r\n\r\n    function getManufacturer(address _account) public view returns (Manufacturer memory) {\r\n        Manufacturer memory manufacturer = manufacturers[_account];\r\n        require(manufacturer.account != address(0), \"Manufacturer does not exist\");\r\n        return manufacturer;\r\n    }\r\n\r\n     function registerWholesaler(string memory _username, address _account) public onlyOwner {\r\n        wholesalers[_account] = Wholesaler(_username, _account);\r\n        wholesalerAccounts.push(_account);\r\n    }\r\n\r\n    function getWholesaler(address _account) public view returns (Wholesaler memory) {\r\n        Wholesaler memory wholesaler = wholesalers[_account];\r\n        require(wholesaler.account != address(0), \"Wholesaler does not exist\");\r\n        return wholesaler;\r\n    }\r\n\r\n     function registerDistributor(string memory _username, address _account) public onlyOwner {\r\n        distributors[_account] = Distributor(_username, _account);\r\n        distributorAccounts.push(_account);\r\n    }\r\n\r\n    function getDistributor(address _account) public view returns (Distributor memory) {\r\n        Distributor memory distributor = distributors[_account];\r\n        require(distributor.account != address(0), \"Distributor does not exist\");\r\n        return distributor;\r\n    }\r\n\r\n     function registerHospitalPharmacy(string memory _username, address _account) public onlyOwner {\r\n        hospitalpharmacies[_account] = HospitalPharmacy(_username, _account);\r\n        hospitalpharmacyAccounts.push(_account);\r\n    }\r\n\r\n    function getHospitalPharmacy(address _account) public view returns (HospitalPharmacy memory) {\r\n        HospitalPharmacy memory hospitalpharmacy = hospitalpharmacies[_account];\r\n        require(hospitalpharmacy.account != address(0), \"Hospital/Pharmacy does not exist\");\r\n        return hospitalpharmacy;\r\n    }\r\n\r\n\r\n     function getAllDistributors() public view returns (address[] memory) {\r\n        return distributorAccounts;\r\n    }\r\n\r\n    \r\n     function getAllWholesalers() public view returns (address[] memory) {\r\n        return wholesalerAccounts;\r\n    }\r\n\r\n    \r\n     function getAllManufacturers() public view returns (address[] memory) {\r\n        return manufacturerAccounts;\r\n    }\r\n\r\n    \r\n     function getAllHospitalPharmacies() public view returns (address[] memory) {\r\n        return hospitalpharmacyAccounts;\r\n    }\r\n\r\n\r\n}\r\n\r\n",
  "sourcePath": "C:\\Users\\HP\\Desktop\\medKART\\frontend\\src\\contracts\\PharmaChain.sol",
  "compiler": {
    "name": "solc",
    "version": "0.8.0+commit.c7dfd78e.Emscripten.clang"
  },
  "schemaVersion": "3.4.16",
  "updatedAt": "2024-08-09T13:52:01.398Z",
  "networkType": "ethereum",
  "devdoc": {
    "kind": "dev",
    "methods": {},
    "version": 1
  },
  "userdoc": {
    "kind": "user",
    "methods": {},
    "version": 1
  }
}